{
  "_format": "hh-sol-artifact-1",
  "contractName": "AssetVerification",
  "sourceName": "contracts/AssetVerification.sol",
  "abi": [
    {
      "inputs": [
        {
          "internalType": "address",
          "name": "_oracle",
          "type": "address"
        },
        {
          "internalType": "bytes32",
          "name": "_jobId",
          "type": "bytes32"
        },
        {
          "internalType": "address",
          "name": "_czNFTAddress",
          "type": "address"
        }
      ],
      "stateMutability": "nonpayable",
      "type": "constructor"
    },
    {
      "anonymous": false,
      "inputs": [
        {
          "indexed": true,
          "internalType": "address",
          "name": "user",
          "type": "address"
        }
      ],
      "name": "AirdropClaimed",
      "type": "event"
    },
    {
      "anonymous": false,
      "inputs": [
        {
          "indexed": true,
          "internalType": "bytes32",
          "name": "id",
          "type": "bytes32"
        }
      ],
      "name": "ChainlinkCancelled",
      "type": "event"
    },
    {
      "anonymous": false,
      "inputs": [
        {
          "indexed": true,
          "internalType": "bytes32",
          "name": "id",
          "type": "bytes32"
        }
      ],
      "name": "ChainlinkFulfilled",
      "type": "event"
    },
    {
      "anonymous": false,
      "inputs": [
        {
          "indexed": true,
          "internalType": "bytes32",
          "name": "id",
          "type": "bytes32"
        }
      ],
      "name": "ChainlinkRequested",
      "type": "event"
    },
    {
      "anonymous": false,
      "inputs": [
        {
          "indexed": true,
          "internalType": "address",
          "name": "previousOwner",
          "type": "address"
        },
        {
          "indexed": true,
          "internalType": "address",
          "name": "newOwner",
          "type": "address"
        }
      ],
      "name": "OwnershipTransferred",
      "type": "event"
    },
    {
      "anonymous": false,
      "inputs": [
        {
          "indexed": true,
          "internalType": "address",
          "name": "user",
          "type": "address"
        },
        {
          "indexed": false,
          "internalType": "bool",
          "name": "verified",
          "type": "bool"
        }
      ],
      "name": "VerificationCompleted",
      "type": "event"
    },
    {
      "anonymous": false,
      "inputs": [
        {
          "indexed": true,
          "internalType": "bytes32",
          "name": "requestId",
          "type": "bytes32"
        },
        {
          "indexed": true,
          "internalType": "address",
          "name": "user",
          "type": "address"
        }
      ],
      "name": "VerificationRequested",
      "type": "event"
    },
    {
      "anonymous": false,
      "inputs": [
        {
          "indexed": true,
          "internalType": "address",
          "name": "user",
          "type": "address"
        }
      ],
      "name": "VoteCasted",
      "type": "event"
    },
    {
      "inputs": [],
      "name": "castVote",
      "outputs": [],
      "stateMutability": "nonpayable",
      "type": "function"
    },
    {
      "inputs": [],
      "name": "czNFT",
      "outputs": [
        {
          "internalType": "contract CZNFT",
          "name": "",
          "type": "address"
        }
      ],
      "stateMutability": "view",
      "type": "function"
    },
    {
      "inputs": [
        {
          "internalType": "bytes32",
          "name": "_requestId",
          "type": "bytes32"
        },
        {
          "internalType": "bool",
          "name": "_verified",
          "type": "bool"
        }
      ],
      "name": "fulfill",
      "outputs": [],
      "stateMutability": "nonpayable",
      "type": "function"
    },
    {
      "inputs": [
        {
          "internalType": "address",
          "name": "",
          "type": "address"
        }
      ],
      "name": "isVerified",
      "outputs": [
        {
          "internalType": "bool",
          "name": "",
          "type": "bool"
        }
      ],
      "stateMutability": "view",
      "type": "function"
    },
    {
      "inputs": [],
      "name": "owner",
      "outputs": [
        {
          "internalType": "address",
          "name": "",
          "type": "address"
        }
      ],
      "stateMutability": "view",
      "type": "function"
    },
    {
      "inputs": [],
      "name": "renounceOwnership",
      "outputs": [],
      "stateMutability": "nonpayable",
      "type": "function"
    },
    {
      "inputs": [
        {
          "internalType": "address",
          "name": "newOwner",
          "type": "address"
        }
      ],
      "name": "transferOwnership",
      "outputs": [],
      "stateMutability": "nonpayable",
      "type": "function"
    },
    {
      "inputs": [
        {
          "internalType": "address",
          "name": "",
          "type": "address"
        }
      ],
      "name": "userVotes",
      "outputs": [
        {
          "internalType": "uint256",
          "name": "",
          "type": "uint256"
        }
      ],
      "stateMutability": "view",
      "type": "function"
    },
    {
      "inputs": [
        {
          "internalType": "string",
          "name": "matchCodeURL",
          "type": "string"
        }
      ],
      "name": "verifyAsset",
      "outputs": [],
      "stateMutability": "nonpayable",
      "type": "function"
    },
    {
      "inputs": [],
      "name": "withdrawLink",
      "outputs": [],
      "stateMutability": "nonpayable",
      "type": "function"
    }
  ],
  "bytecode": "0x608060405260016004553480156200001657600080fd5b50604051620025173803806200251783398181016040528101906200003c9190620002f5565b6200005c620000506200013e60201b60201c565b6200014660201b60201c565b6200008173779877a7b0d9e8603169ddbd7836e478b46247896200020c60201b60201c565b82600a60006101000a81548173ffffffffffffffffffffffffffffffffffffffff021916908373ffffffffffffffffffffffffffffffffffffffff16021790555081600981905550600a670de0b6b3a76400006001620000e291906200038a565b620000ee919062000404565b60088190555080600760006101000a81548173ffffffffffffffffffffffffffffffffffffffff021916908373ffffffffffffffffffffffffffffffffffffffff1602179055505050506200043c565b600033905090565b6000600660009054906101000a900473ffffffffffffffffffffffffffffffffffffffff16905081600660006101000a81548173ffffffffffffffffffffffffffffffffffffffff021916908373ffffffffffffffffffffffffffffffffffffffff1602179055508173ffffffffffffffffffffffffffffffffffffffff168173ffffffffffffffffffffffffffffffffffffffff167f8be0079c531659141344cd1fd0a4f28419497f9722a3daafe3b4186f6b6457e060405160405180910390a35050565b80600260006101000a81548173ffffffffffffffffffffffffffffffffffffffff021916908373ffffffffffffffffffffffffffffffffffffffff16021790555050565b600080fd5b600073ffffffffffffffffffffffffffffffffffffffff82169050919050565b6000620002828262000255565b9050919050565b620002948162000275565b8114620002a057600080fd5b50565b600081519050620002b48162000289565b92915050565b6000819050919050565b620002cf81620002ba565b8114620002db57600080fd5b50565b600081519050620002ef81620002c4565b92915050565b60008060006060848603121562000311576200031062000250565b5b60006200032186828701620002a3565b93505060206200033486828701620002de565b92505060406200034786828701620002a3565b9150509250925092565b6000819050919050565b7f4e487b7100000000000000000000000000000000000000000000000000000000600052601160045260246000fd5b6000620003978262000351565b9150620003a48362000351565b9250828202620003b48162000351565b91508282048414831517620003ce57620003cd6200035b565b5b5092915050565b7f4e487b7100000000000000000000000000000000000000000000000000000000600052601260045260246000fd5b6000620004118262000351565b91506200041e8362000351565b925082620004315762000430620003d5565b5b828204905092915050565b6120cb806200044c6000396000f3fe608060405234801561001057600080fd5b506004361061009e5760003560e01c80638dc654a2116100665780638dc654a214610121578063b9209e331461012b578063dcc20a281461015b578063f2fde38b14610179578063fd68990a146101955761009e565b80630fb524ce146100a35780634e58c977146100ad57806362190150146100c9578063715018a6146100f95780638da5cb5b14610103575b600080fd5b6100ab6101b1565b005b6100c760048036038101906100c291906114de565b610403565b005b6100e360048036038101906100de9190611585565b610533565b6040516100f091906115cb565b60405180910390f35b61010161054b565b005b61010b61055f565b60405161011891906115f5565b60405180910390f35b610129610589565b005b61014560048036038101906101409190611585565b6106d6565b604051610152919061162b565b60405180910390f35b6101636106f6565b60405161017091906116a5565b60405180910390f35b610193600480360381019061018e9190611585565b61071c565b005b6101af60048036038101906101aa9190611722565b61079f565b005b600d60003373ffffffffffffffffffffffffffffffffffffffff1673ffffffffffffffffffffffffffffffffffffffff16815260200190815260200160002060009054906101000a900460ff1661023d576040517f08c379a0000000000000000000000000000000000000000000000000000000008152600401610234906117bf565b60405180910390fd5b6001600c60003373ffffffffffffffffffffffffffffffffffffffff1673ffffffffffffffffffffffffffffffffffffffff168152602001908152602001600020600082825461028d919061180e565b925050819055503373ffffffffffffffffffffffffffffffffffffffff167f7ce969a18bb6b0fba42c6d9746e7d08eeca4c661809659c91d276456e3153ac060405160405180910390a2600a600c60003373ffffffffffffffffffffffffffffffffffffffff1673ffffffffffffffffffffffffffffffffffffffff168152602001908152602001600020540361040157600760009054906101000a900473ffffffffffffffffffffffffffffffffffffffff1673ffffffffffffffffffffffffffffffffffffffff1663cf378343336040518263ffffffff1660e01b8152600401610379919061188e565b6020604051808303816000875af1158015610398573d6000803e3d6000fd5b505050506040513d601f19601f820116820180604052508101906103bc91906118e8565b503373ffffffffffffffffffffffffffffffffffffffff167fc9f0f8d7dc4420a7a9f4c3465fd7e04ccdcdba009c147e7663ddd6c6090c732f60405160405180910390a25b565b60006104196009543063fd68990a60e01b610987565b90506104656040518060400160405280600381526020017f676574000000000000000000000000000000000000000000000000000000000081525083836109b89092919063ffffffff16565b6000610496600a60009054906101000a900473ffffffffffffffffffffffffffffffffffffffff16836008546109eb565b905033600b600083815260200190815260200160002060006101000a81548173ffffffffffffffffffffffffffffffffffffffff021916908373ffffffffffffffffffffffffffffffffffffffff1602179055503373ffffffffffffffffffffffffffffffffffffffff16817fba76016ada5c81e9d1ad739d030fa60c51065dcd1759fe0ab3f43d599dfcd0f860405160405180910390a3505050565b600c6020528060005260406000206000915090505481565b610553610ab7565b61055d6000610b35565b565b6000600660009054906101000a900473ffffffffffffffffffffffffffffffffffffffff16905090565b610591610ab7565b600061059b610bfb565b90508073ffffffffffffffffffffffffffffffffffffffff1663a9059cbb338373ffffffffffffffffffffffffffffffffffffffff166370a08231306040518263ffffffff1660e01b81526004016105f391906115f5565b602060405180830381865afa158015610610573d6000803e3d6000fd5b505050506040513d601f19601f8201168201806040525081019061063491906118e8565b6040518363ffffffff1660e01b8152600401610651929190611915565b6020604051808303816000875af1158015610670573d6000803e3d6000fd5b505050506040513d601f19601f820116820180604052508101906106949190611953565b6106d3576040517f08c379a00000000000000000000000000000000000000000000000000000000081526004016106ca906119cc565b60405180910390fd5b50565b600d6020528060005260406000206000915054906101000a900460ff1681565b600760009054906101000a900473ffffffffffffffffffffffffffffffffffffffff1681565b610724610ab7565b600073ffffffffffffffffffffffffffffffffffffffff168173ffffffffffffffffffffffffffffffffffffffff1603610793576040517f08c379a000000000000000000000000000000000000000000000000000000000815260040161078a90611a5e565b60405180910390fd5b61079c81610b35565b50565b816005600082815260200190815260200160002060009054906101000a900473ffffffffffffffffffffffffffffffffffffffff1673ffffffffffffffffffffffffffffffffffffffff163373ffffffffffffffffffffffffffffffffffffffff1614610841576040517f08c379a000000000000000000000000000000000000000000000000000000000815260040161083890611af0565b60405180910390fd5b6005600082815260200190815260200160002060006101000a81549073ffffffffffffffffffffffffffffffffffffffff0219169055807f7cc135e0cebb02c3480ae5d74d377283180a2601f8f644edf7987b009316c63a60405160405180910390a26000600b600085815260200190815260200160002060009054906101000a900473ffffffffffffffffffffffffffffffffffffffff16905082600d60008373ffffffffffffffffffffffffffffffffffffffff1673ffffffffffffffffffffffffffffffffffffffff16815260200190815260200160002060006101000a81548160ff0219169083151502179055508073ffffffffffffffffffffffffffffffffffffffff167fd1d482b5c22565a9f99b7cf53436104f195185943cd2a18f7294234cfeda41ef84604051610979919061162b565b60405180910390a250505050565b61098f6112fd565b6109976112fd565b6109ae85858584610c25909392919063ffffffff16565b9150509392505050565b6109cf828460800151610cd590919063ffffffff16565b6109e6818460800151610cd590919063ffffffff16565b505050565b6000806004549050600181610a00919061180e565b6004819055506000634042994660e01b60008087600001513089604001518760018c6080015160000151604051602401610a41989796959493929190611bd9565b604051602081830303815290604052907bffffffffffffffffffffffffffffffffffffffffffffffffffffffff19166020820180517bffffffffffffffffffffffffffffffffffffffffffffffffffffffff83818316178352505050509050610aac86838684610cfa565b925050509392505050565b610abf610e8f565b73ffffffffffffffffffffffffffffffffffffffff16610add61055f565b73ffffffffffffffffffffffffffffffffffffffff1614610b33576040517f08c379a0000000000000000000000000000000000000000000000000000000008152600401610b2a90611caa565b60405180910390fd5b565b6000600660009054906101000a900473ffffffffffffffffffffffffffffffffffffffff16905081600660006101000a81548173ffffffffffffffffffffffffffffffffffffffff021916908373ffffffffffffffffffffffffffffffffffffffff1602179055508173ffffffffffffffffffffffffffffffffffffffff168173ffffffffffffffffffffffffffffffffffffffff167f8be0079c531659141344cd1fd0a4f28419497f9722a3daafe3b4186f6b6457e060405160405180910390a35050565b6000600260009054906101000a900473ffffffffffffffffffffffffffffffffffffffff16905090565b610c2d6112fd565b610c3d8560800151610100610e97565b508385600001818152505082856020019073ffffffffffffffffffffffffffffffffffffffff16908173ffffffffffffffffffffffffffffffffffffffff16815250508185604001907bffffffffffffffffffffffffffffffffffffffffffffffffffffffff191690817bffffffffffffffffffffffffffffffffffffffffffffffffffffffff191681525050849050949350505050565b610ce28260038351610f01565b610cf5818361108690919063ffffffff16565b505050565b60003084604051602001610d0f929190611d45565b604051602081830303815290604052805190602001209050846005600083815260200190815260200160002060006101000a81548173ffffffffffffffffffffffffffffffffffffffff021916908373ffffffffffffffffffffffffffffffffffffffff160217905550807fb5e6e01e79f91267dc17b4e6314d5d4d03593d2ceee0fbb452b750bd70ea5af960405160405180910390a2600260009054906101000a900473ffffffffffffffffffffffffffffffffffffffff1673ffffffffffffffffffffffffffffffffffffffff16634000aea08685856040518463ffffffff1660e01b8152600401610e0593929190611d71565b6020604051808303816000875af1158015610e24573d6000803e3d6000fd5b505050506040513d601f19601f82011682018060405250810190610e489190611953565b610e87576040517f08c379a0000000000000000000000000000000000000000000000000000000008152600401610e7e90611e21565b60405180910390fd5b949350505050565b600033905090565b610e9f61136a565b6000602083610eae9190611e70565b14610eda57602082610ec09190611e70565b6020610ecc9190611ea1565b82610ed7919061180e565b91505b81836020018181525050604051808452600081528281016020016040525082905092915050565b60178167ffffffffffffffff1611610f3857610f328160058460ff16901b60ff1617846110a890919063ffffffff16565b50611081565b60ff8167ffffffffffffffff1611610f8e57610f67601860058460ff16901b17846110a890919063ffffffff16565b50610f888167ffffffffffffffff166001856110c89092919063ffffffff16565b50611080565b61ffff8167ffffffffffffffff1611610fe557610fbe601960058460ff16901b17846110a890919063ffffffff16565b50610fdf8167ffffffffffffffff166002856110c89092919063ffffffff16565b5061107f565b63ffffffff8167ffffffffffffffff161161103e57611017601a60058460ff16901b17846110a890919063ffffffff16565b506110388167ffffffffffffffff166004856110c89092919063ffffffff16565b5061107e565b61105b601b60058460ff16901b17846110a890919063ffffffff16565b5061107c8167ffffffffffffffff166008856110c89092919063ffffffff16565b505b5b5b5b505050565b61108e61136a565b6110a0838460000151518485516110ea565b905092915050565b6110b061136a565b6110c083846000015151846111d9565b905092915050565b6110d061136a565b6110e184856000015151858561122f565b90509392505050565b6110f261136a565b825182111561110057600080fd5b84602001518285611111919061180e565b11156111465761114585600261113688602001518887611131919061180e565b6112bd565b6111409190611ed5565b6112d9565b5b6000808651805187602083010193508088870111156111655787860182525b60208701925050505b602084106111ac5780518252602082611187919061180e565b9150602081611196919061180e565b90506020846111a59190611ea1565b935061116e565b60006001856020036101000a03905080198251168184511681811785525050508692505050949350505050565b6111e161136a565b836020015183106112075761120684600286602001516112019190611ed5565b6112d9565b5b83518051602085830101848153818603611222576001820183525b5050508390509392505050565b61123761136a565b84602001518483611248919061180e565b11156112705761126f8560028685611260919061180e565b61126a9190611ed5565b6112d9565b5b6000600183610100611282919061204a565b61128c9190611ea1565b905085518386820101858319825116178152815185880111156112af5784870182525b505085915050949350505050565b6000818311156112cf578290506112d3565b8190505b92915050565b6000826000015190506112ec8383610e97565b506112f78382611086565b50505050565b6040518060a0016040528060008019168152602001600073ffffffffffffffffffffffffffffffffffffffff16815260200160007bffffffffffffffffffffffffffffffffffffffffffffffffffffffff191681526020016000815260200161136461136a565b81525090565b604051806040016040528060608152602001600081525090565b6000604051905090565b600080fd5b600080fd5b600080fd5b600080fd5b6000601f19601f8301169050919050565b7f4e487b7100000000000000000000000000000000000000000000000000000000600052604160045260246000fd5b6113eb826113a2565b810181811067ffffffffffffffff8211171561140a576114096113b3565b5b80604052505050565b600061141d611384565b905061142982826113e2565b919050565b600067ffffffffffffffff821115611449576114486113b3565b5b611452826113a2565b9050602081019050919050565b82818337600083830152505050565b600061148161147c8461142e565b611413565b90508281526020810184848401111561149d5761149c61139d565b5b6114a884828561145f565b509392505050565b600082601f8301126114c5576114c4611398565b5b81356114d584826020860161146e565b91505092915050565b6000602082840312156114f4576114f361138e565b5b600082013567ffffffffffffffff81111561151257611511611393565b5b61151e848285016114b0565b91505092915050565b600073ffffffffffffffffffffffffffffffffffffffff82169050919050565b600061155282611527565b9050919050565b61156281611547565b811461156d57600080fd5b50565b60008135905061157f81611559565b92915050565b60006020828403121561159b5761159a61138e565b5b60006115a984828501611570565b91505092915050565b6000819050919050565b6115c5816115b2565b82525050565b60006020820190506115e060008301846115bc565b92915050565b6115ef81611547565b82525050565b600060208201905061160a60008301846115e6565b92915050565b60008115159050919050565b61162581611610565b82525050565b6000602082019050611640600083018461161c565b92915050565b6000819050919050565b600061166b61166661166184611527565b611646565b611527565b9050919050565b600061167d82611650565b9050919050565b600061168f82611672565b9050919050565b61169f81611684565b82525050565b60006020820190506116ba6000830184611696565b92915050565b6000819050919050565b6116d3816116c0565b81146116de57600080fd5b50565b6000813590506116f0816116ca565b92915050565b6116ff81611610565b811461170a57600080fd5b50565b60008135905061171c816116f6565b92915050565b600080604083850312156117395761173861138e565b5b6000611747858286016116e1565b92505060206117588582860161170d565b9150509250929050565b600082825260208201905092915050565b7f55736572206e6f74207665726966696564000000000000000000000000000000600082015250565b60006117a9601183611762565b91506117b482611773565b602082019050919050565b600060208201905081810360008301526117d88161179c565b9050919050565b7f4e487b7100000000000000000000000000000000000000000000000000000000600052601160045260246000fd5b6000611819826115b2565b9150611824836115b2565b925082820190508082111561183c5761183b6117df565b5b92915050565b7f756e69717565546f6b656e555249000000000000000000000000000000000000600082015250565b6000611878600e83611762565b915061188382611842565b602082019050919050565b60006040820190506118a360008301846115e6565b81810360208301526118b48161186b565b905092915050565b6118c5816115b2565b81146118d057600080fd5b50565b6000815190506118e2816118bc565b92915050565b6000602082840312156118fe576118fd61138e565b5b600061190c848285016118d3565b91505092915050565b600060408201905061192a60008301856115e6565b61193760208301846115bc565b9392505050565b60008151905061194d816116f6565b92915050565b6000602082840312156119695761196861138e565b5b60006119778482850161193e565b91505092915050565b7f556e61626c6520746f207472616e736665720000000000000000000000000000600082015250565b60006119b6601283611762565b91506119c182611980565b602082019050919050565b600060208201905081810360008301526119e5816119a9565b9050919050565b7f4f776e61626c653a206e6577206f776e657220697320746865207a65726f206160008201527f6464726573730000000000000000000000000000000000000000000000000000602082015250565b6000611a48602683611762565b9150611a53826119ec565b604082019050919050565b60006020820190508181036000830152611a7781611a3b565b9050919050565b7f536f75726365206d75737420626520746865206f7261636c65206f662074686560008201527f2072657175657374000000000000000000000000000000000000000000000000602082015250565b6000611ada602883611762565b9150611ae582611a7e565b604082019050919050565b60006020820190508181036000830152611b0981611acd565b9050919050565b611b19816116c0565b82525050565b60007fffffffff0000000000000000000000000000000000000000000000000000000082169050919050565b611b5481611b1f565b82525050565b600081519050919050565b600082825260208201905092915050565b60005b83811015611b94578082015181840152602081019050611b79565b60008484015250505050565b6000611bab82611b5a565b611bb58185611b65565b9350611bc5818560208601611b76565b611bce816113a2565b840191505092915050565b600061010082019050611bef600083018b6115e6565b611bfc602083018a6115bc565b611c096040830189611b10565b611c1660608301886115e6565b611c236080830187611b4b565b611c3060a08301866115bc565b611c3d60c08301856115bc565b81810360e0830152611c4f8184611ba0565b90509998505050505050505050565b7f4f776e61626c653a2063616c6c6572206973206e6f7420746865206f776e6572600082015250565b6000611c94602083611762565b9150611c9f82611c5e565b602082019050919050565b60006020820190508181036000830152611cc381611c87565b9050919050565b6000611cd582611672565b9050919050565b60008160601b9050919050565b6000611cf482611cdc565b9050919050565b6000611d0682611ce9565b9050919050565b611d1e611d1982611cca565b611cfb565b82525050565b6000819050919050565b611d3f611d3a826115b2565b611d24565b82525050565b6000611d518285611d0d565b601482019150611d618284611d2e565b6020820191508190509392505050565b6000606082019050611d8660008301866115e6565b611d9360208301856115bc565b8181036040830152611da58184611ba0565b9050949350505050565b7f756e61626c6520746f207472616e73666572416e6443616c6c20746f206f726160008201527f636c650000000000000000000000000000000000000000000000000000000000602082015250565b6000611e0b602383611762565b9150611e1682611daf565b604082019050919050565b60006020820190508181036000830152611e3a81611dfe565b9050919050565b7f4e487b7100000000000000000000000000000000000000000000000000000000600052601260045260246000fd5b6000611e7b826115b2565b9150611e86836115b2565b925082611e9657611e95611e41565b5b828206905092915050565b6000611eac826115b2565b9150611eb7836115b2565b9250828203905081811115611ecf57611ece6117df565b5b92915050565b6000611ee0826115b2565b9150611eeb836115b2565b9250828202611ef9816115b2565b91508282048414831517611f1057611f0f6117df565b5b5092915050565b60008160011c9050919050565b6000808291508390505b6001851115611f6e57808604811115611f4a57611f496117df565b5b6001851615611f595780820291505b8081029050611f6785611f17565b9450611f2e565b94509492505050565b600082611f875760019050612043565b81611f955760009050612043565b8160018114611fab5760028114611fb557611fe4565b6001915050612043565b60ff841115611fc757611fc66117df565b5b8360020a915084821115611fde57611fdd6117df565b5b50612043565b5060208310610133831016604e8410600b84101617156120195782820a905083811115612014576120136117df565b5b612043565b6120268484846001611f24565b9250905081840481111561203d5761203c6117df565b5b81810290505b9392505050565b6000612055826115b2565b9150612060836115b2565b925061208d7fffffffffffffffffffffffffffffffffffffffffffffffffffffffffffffffff8484611f77565b90509291505056fea2646970667358221220e6186dfb81517cc62e1f6d44430d67c2edff8a7a8ea25becc527d816792b224a64736f6c63430008140033",
  "linkReferences": {},
  "deployedLinkReferences": {}
}