{
  "_format": "hh-sol-artifact-1",
  "contractName": "CarbonProject",
  "sourceName": "contracts/LowCarbonProject.sol",
  "abi": [
    {
      "inputs": [],
      "stateMutability": "nonpayable",
      "type": "constructor"
    },
    {
      "anonymous": false,
      "inputs": [
        {
          "indexed": true,
          "internalType": "uint256",
          "name": "projectId",
          "type": "uint256"
        },
        {
          "indexed": false,
          "internalType": "uint256",
          "name": "carbonAmount",
          "type": "uint256"
        }
      ],
      "name": "CarbonCreditRecorded",
      "type": "event"
    },
    {
      "anonymous": false,
      "inputs": [
        {
          "indexed": true,
          "internalType": "uint256",
          "name": "projectId",
          "type": "uint256"
        },
        {
          "indexed": false,
          "internalType": "enum CarbonProject.VerificationStatus",
          "name": "status",
          "type": "uint8"
        }
      ],
      "name": "CarbonCreditVerified",
      "type": "event"
    },
    {
      "anonymous": false,
      "inputs": [
        {
          "indexed": true,
          "internalType": "uint256",
          "name": "id",
          "type": "uint256"
        },
        {
          "indexed": false,
          "internalType": "address",
          "name": "owner",
          "type": "address"
        },
        {
          "indexed": false,
          "internalType": "string",
          "name": "serialNumber",
          "type": "string"
        },
        {
          "indexed": false,
          "internalType": "uint256",
          "name": "carbonAmount",
          "type": "uint256"
        }
      ],
      "name": "ProjectCreated",
      "type": "event"
    },
    {
      "inputs": [
        {
          "internalType": "string",
          "name": "serialNumber",
          "type": "string"
        },
        {
          "internalType": "uint256",
          "name": "carbonAmount",
          "type": "uint256"
        }
      ],
      "name": "createProject",
      "outputs": [],
      "stateMutability": "nonpayable",
      "type": "function"
    },
    {
      "inputs": [
        {
          "internalType": "uint256",
          "name": "",
          "type": "uint256"
        }
      ],
      "name": "projects",
      "outputs": [
        {
          "internalType": "uint256",
          "name": "id",
          "type": "uint256"
        },
        {
          "internalType": "address",
          "name": "owner",
          "type": "address"
        },
        {
          "internalType": "string",
          "name": "serialNumber",
          "type": "string"
        },
        {
          "internalType": "uint256",
          "name": "carbonAmount",
          "type": "uint256"
        },
        {
          "internalType": "enum CarbonProject.VerificationStatus",
          "name": "verificationStatus",
          "type": "uint8"
        },
        {
          "internalType": "bool",
          "name": "carbonCreditRecorded",
          "type": "bool"
        }
      ],
      "stateMutability": "view",
      "type": "function"
    },
    {
      "inputs": [
        {
          "internalType": "uint256",
          "name": "projectId",
          "type": "uint256"
        },
        {
          "internalType": "bool",
          "name": "isVerified",
          "type": "bool"
        }
      ],
      "name": "verifyCarbonCredit",
      "outputs": [],
      "stateMutability": "nonpayable",
      "type": "function"
    }
  ],
  "bytecode": "0x6080604052600160005534801561001557600080fd5b5033600260006101000a81548173ffffffffffffffffffffffffffffffffffffffff021916908373ffffffffffffffffffffffffffffffffffffffff1602179055506110f8806100666000396000f3fe608060405234801561001057600080fd5b50600436106100415760003560e01c8063107046bd1461004657806355a889711461007b57806391754a5d14610097575b600080fd5b610060600480360381019061005b91906106f0565b6100b3565b6040516100729695949392919061088f565b60405180910390f35b61009560048036038101906100909190610923565b6101b1565b005b6100b160048036038101906100ac9190610a98565b610359565b005b60016020528060005260406000206000915090508060000154908060010160009054906101000a900473ffffffffffffffffffffffffffffffffffffffff169080600201805461010290610b23565b80601f016020809104026020016040519081016040528092919081815260200182805461012e90610b23565b801561017b5780601f106101505761010080835404028352916020019161017b565b820191906000526020600020905b81548152906001019060200180831161015e57829003601f168201915b5050505050908060030154908060040160009054906101000a900460ff16908060040160019054906101000a900460ff16905086565b600260009054906101000a900473ffffffffffffffffffffffffffffffffffffffff1673ffffffffffffffffffffffffffffffffffffffff163373ffffffffffffffffffffffffffffffffffffffff1614610241576040517f08c379a000000000000000000000000000000000000000000000000000000000815260040161023890610bc6565b60405180910390fd5b816000548110801561026a57506000600160008381526020019081526020016000206000015414155b6102a9576040517f08c379a00000000000000000000000000000000000000000000000000000000081526004016102a090610c32565b60405180910390fd5b6000600160008581526020019081526020016000209050826102cc5760026102cf565b60015b8160040160006101000a81548160ff021916908360028111156102f5576102f46107fd565b5b0217905550837f7997e5bbbe80d69f3765212b27b71c66ade26afdcc5afaa108a7a0b7db3e917d8260040160009054906101000a900460ff1660405161033b9190610c52565b60405180910390a28215610353576103528461052c565b5b50505050565b610362826105f2565b6103a1576040517f08c379a000000000000000000000000000000000000000000000000000000000815260040161039890610cb9565b60405180910390fd5b60008060008154809291906103b590610d08565b9190505590506040518060c001604052808281526020013373ffffffffffffffffffffffffffffffffffffffff16815260200184815260200183815260200160006002811115610408576104076107fd565b5b815260200160001515815250600160008381526020019081526020016000206000820151816000015560208201518160010160006101000a81548173ffffffffffffffffffffffffffffffffffffffff021916908373ffffffffffffffffffffffffffffffffffffffff160217905550604082015181600201908161048d9190610efc565b506060820151816003015560808201518160040160006101000a81548160ff021916908360028111156104c3576104c26107fd565b5b021790555060a08201518160040160016101000a81548160ff021916908315150217905550905050807f51d08cb6cfa640a387210fb69df925dfb70169ae7373f8ecd40b977b0c800d9a33858560405161051f93929190610fce565b60405180910390a2505050565b60006001600083815260200190815260200160002090508060040160019054906101000a900460ff1615610595576040517f08c379a000000000000000000000000000000000000000000000000000000000815260040161058c90611058565b60405180910390fd5b60018160040160016101000a81548160ff021916908315150217905550817fd3976976a0945c8167f32bc3cd628c3cf29deddbbe6d096c8e123016af93c0c182600301546040516105e69190611078565b60405180910390a25050565b6000808290506000600c905060006001905060005b8351811015610698577f2d0000000000000000000000000000000000000000000000000000000000000084828151811061064457610643611093565b5b602001015160f81c60f81b7effffffffffffffffffffffffffffffffffffffffffffffffffffffffffffff19160361068557818061068190610d08565b9250505b808061069090610d08565b915050610607565b508181149350505050919050565b6000604051905090565b600080fd5b600080fd5b6000819050919050565b6106cd816106ba565b81146106d857600080fd5b50565b6000813590506106ea816106c4565b92915050565b600060208284031215610706576107056106b0565b5b6000610714848285016106db565b91505092915050565b610726816106ba565b82525050565b600073ffffffffffffffffffffffffffffffffffffffff82169050919050565b60006107578261072c565b9050919050565b6107678161074c565b82525050565b600081519050919050565b600082825260208201905092915050565b60005b838110156107a757808201518184015260208101905061078c565b60008484015250505050565b6000601f19601f8301169050919050565b60006107cf8261076d565b6107d98185610778565b93506107e9818560208601610789565b6107f2816107b3565b840191505092915050565b7f4e487b7100000000000000000000000000000000000000000000000000000000600052602160045260246000fd5b6003811061083d5761083c6107fd565b5b50565b600081905061084e8261082c565b919050565b600061085e82610840565b9050919050565b61086e81610853565b82525050565b60008115159050919050565b61088981610874565b82525050565b600060c0820190506108a4600083018961071d565b6108b1602083018861075e565b81810360408301526108c381876107c4565b90506108d2606083018661071d565b6108df6080830185610865565b6108ec60a0830184610880565b979650505050505050565b61090081610874565b811461090b57600080fd5b50565b60008135905061091d816108f7565b92915050565b6000806040838503121561093a576109396106b0565b5b6000610948858286016106db565b92505060206109598582860161090e565b9150509250929050565b600080fd5b600080fd5b7f4e487b7100000000000000000000000000000000000000000000000000000000600052604160045260246000fd5b6109a5826107b3565b810181811067ffffffffffffffff821117156109c4576109c361096d565b5b80604052505050565b60006109d76106a6565b90506109e3828261099c565b919050565b600067ffffffffffffffff821115610a0357610a0261096d565b5b610a0c826107b3565b9050602081019050919050565b82818337600083830152505050565b6000610a3b610a36846109e8565b6109cd565b905082815260208101848484011115610a5757610a56610968565b5b610a62848285610a19565b509392505050565b600082601f830112610a7f57610a7e610963565b5b8135610a8f848260208601610a28565b91505092915050565b60008060408385031215610aaf57610aae6106b0565b5b600083013567ffffffffffffffff811115610acd57610acc6106b5565b5b610ad985828601610a6a565b9250506020610aea858286016106db565b9150509250929050565b7f4e487b7100000000000000000000000000000000000000000000000000000000600052602260045260246000fd5b60006002820490506001821680610b3b57607f821691505b602082108103610b4e57610b4d610af4565b5b50919050565b7f4f6e6c792061646d696e2063616e20706572666f726d2074686973206163746960008201527f6f6e000000000000000000000000000000000000000000000000000000000000602082015250565b6000610bb0602283610778565b9150610bbb82610b54565b604082019050919050565b60006020820190508181036000830152610bdf81610ba3565b9050919050565b7f50726f6a65637420646f6573206e6f7420657869737400000000000000000000600082015250565b6000610c1c601683610778565b9150610c2782610be6565b602082019050919050565b60006020820190508181036000830152610c4b81610c0f565b9050919050565b6000602082019050610c676000830184610865565b92915050565b7f496e76616c69642073657269616c206e756d62657220666f726d617400000000600082015250565b6000610ca3601c83610778565b9150610cae82610c6d565b602082019050919050565b60006020820190508181036000830152610cd281610c96565b9050919050565b7f4e487b7100000000000000000000000000000000000000000000000000000000600052601160045260246000fd5b6000610d13826106ba565b91507fffffffffffffffffffffffffffffffffffffffffffffffffffffffffffffffff8203610d4557610d44610cd9565b5b600182019050919050565b60008190508160005260206000209050919050565b60006020601f8301049050919050565b600082821b905092915050565b600060088302610db27fffffffffffffffffffffffffffffffffffffffffffffffffffffffffffffffff82610d75565b610dbc8683610d75565b95508019841693508086168417925050509392505050565b6000819050919050565b6000610df9610df4610def846106ba565b610dd4565b6106ba565b9050919050565b6000819050919050565b610e1383610dde565b610e27610e1f82610e00565b848454610d82565b825550505050565b600090565b610e3c610e2f565b610e47818484610e0a565b505050565b5b81811015610e6b57610e60600082610e34565b600181019050610e4d565b5050565b601f821115610eb057610e8181610d50565b610e8a84610d65565b81016020851015610e99578190505b610ead610ea585610d65565b830182610e4c565b50505b505050565b600082821c905092915050565b6000610ed360001984600802610eb5565b1980831691505092915050565b6000610eec8383610ec2565b9150826002028217905092915050565b610f058261076d565b67ffffffffffffffff811115610f1e57610f1d61096d565b5b610f288254610b23565b610f33828285610e6f565b600060209050601f831160018114610f665760008415610f54578287015190505b610f5e8582610ee0565b865550610fc6565b601f198416610f7486610d50565b60005b82811015610f9c57848901518255600182019150602085019450602081019050610f77565b86831015610fb95784890151610fb5601f891682610ec2565b8355505b6001600288020188555050505b505050505050565b6000606082019050610fe3600083018661075e565b8181036020830152610ff581856107c4565b9050611004604083018461071d565b949350505050565b7f436172626f6e2063726564697420616c7265616479207265636f726465640000600082015250565b6000611042601e83610778565b915061104d8261100c565b602082019050919050565b6000602082019050818103600083015261107181611035565b9050919050565b600060208201905061108d600083018461071d565b92915050565b7f4e487b7100000000000000000000000000000000000000000000000000000000600052603260045260246000fdfea26469706673582212207a662dcf976bf996a7fbf173e47cb890da3544b91ca5fd8408d6a3e22336e2d964736f6c63430008140033",
  "linkReferences": {},
  "deployedLinkReferences": {}
}