{
  "_format": "hh-sol-artifact-1",
  "contractName": "ChallengePool",
  "sourceName": "contracts/ChallengePool.sol",
  "abi": [
    {
      "inputs": [
        {
          "internalType": "address",
          "name": "_czTokenAddress",
          "type": "address"
        },
        {
          "internalType": "address",
          "name": "_czNFTAddress",
          "type": "address"
        }
      ],
      "stateMutability": "nonpayable",
      "type": "constructor"
    },
    {
      "inputs": [
        {
          "internalType": "bool",
          "name": "wantERC721",
          "type": "bool"
        },
        {
          "internalType": "string",
          "name": "tokenURI",
          "type": "string"
        }
      ],
      "name": "claimRewardAndRefundDeposit",
      "outputs": [],
      "stateMutability": "nonpayable",
      "type": "function"
    },
    {
      "inputs": [
        {
          "internalType": "address",
          "name": "participant",
          "type": "address"
        }
      ],
      "name": "completeChallenge",
      "outputs": [],
      "stateMutability": "nonpayable",
      "type": "function"
    },
    {
      "inputs": [],
      "name": "czNFT",
      "outputs": [
        {
          "internalType": "contract CZNFT",
          "name": "",
          "type": "address"
        }
      ],
      "stateMutability": "view",
      "type": "function"
    },
    {
      "inputs": [],
      "name": "czToken",
      "outputs": [
        {
          "internalType": "contract CZToken",
          "name": "",
          "type": "address"
        }
      ],
      "stateMutability": "view",
      "type": "function"
    },
    {
      "inputs": [
        {
          "internalType": "uint256",
          "name": "amount",
          "type": "uint256"
        }
      ],
      "name": "deposit",
      "outputs": [],
      "stateMutability": "nonpayable",
      "type": "function"
    },
    {
      "inputs": [],
      "name": "totalParticipants",
      "outputs": [
        {
          "internalType": "uint256",
          "name": "",
          "type": "uint256"
        }
      ],
      "stateMutability": "view",
      "type": "function"
    }
  ],
  "bytecode": "0x60806040523480156200001157600080fd5b506040516200134b3803806200134b833981810160405281019062000037919062000133565b600160008190555081600160006101000a81548173ffffffffffffffffffffffffffffffffffffffff021916908373ffffffffffffffffffffffffffffffffffffffff16021790555080600260006101000a81548173ffffffffffffffffffffffffffffffffffffffff021916908373ffffffffffffffffffffffffffffffffffffffff16021790555050506200017a565b600080fd5b600073ffffffffffffffffffffffffffffffffffffffff82169050919050565b6000620000fb82620000ce565b9050919050565b6200010d81620000ee565b81146200011957600080fd5b50565b6000815190506200012d8162000102565b92915050565b600080604083850312156200014d576200014c620000c9565b5b60006200015d858286016200011c565b925050602062000170858286016200011c565b9150509250929050565b6111c1806200018a6000396000f3fe608060405234801561001057600080fd5b50600436106100625760003560e01c80636828deaa14610067578063a26dbf2614610083578063b27e1203146100a1578063b6b55f25146100bf578063dcc20a28146100db578063f3ed00e1146100f9575b600080fd5b610081600480360381019061007c9190610944565b610115565b005b61008b6101f2565b604051610098919061098a565b60405180910390f35b6100a96101f8565b6040516100b69190610a04565b60405180910390f35b6100d960048036038101906100d49190610a4b565b61021e565b005b6100e36103fd565b6040516100f09190610a99565b60405180910390f35b610113600480360381019061010e9190610b51565b610423565b005b6000600360008373ffffffffffffffffffffffffffffffffffffffff1673ffffffffffffffffffffffffffffffffffffffff1681526020019081526020016000205411610197576040517f08c379a000000000000000000000000000000000000000000000000000000000815260040161018e90610c0e565b60405180910390fd5b6001600460008373ffffffffffffffffffffffffffffffffffffffff1673ffffffffffffffffffffffffffffffffffffffff16815260200190815260200160002060006101000a81548160ff02191690831515021790555050565b60055481565b600160009054906101000a900473ffffffffffffffffffffffffffffffffffffffff1681565b60008111610261576040517f08c379a000000000000000000000000000000000000000000000000000000000815260040161025890610c7a565b60405180910390fd5b600160009054906101000a900473ffffffffffffffffffffffffffffffffffffffff1673ffffffffffffffffffffffffffffffffffffffff166323b872dd3330846040518463ffffffff1660e01b81526004016102c093929190610ca9565b6020604051808303816000875af11580156102df573d6000803e3d6000fd5b505050506040513d601f19601f820116820180604052508101906103039190610cf5565b610342576040517f08c379a000000000000000000000000000000000000000000000000000000000815260040161033990610d6e565b60405180910390fd5b6000600360003373ffffffffffffffffffffffffffffffffffffffff1673ffffffffffffffffffffffffffffffffffffffff16815260200190815260200160002054036103a45760016005600082825461039c9190610dbd565b925050819055505b80600360003373ffffffffffffffffffffffffffffffffffffffff1673ffffffffffffffffffffffffffffffffffffffff16815260200190815260200160002060008282546103f39190610dbd565b9250508190555050565b600260009054906101000a900473ffffffffffffffffffffffffffffffffffffffff1681565b61042b610883565b600460003373ffffffffffffffffffffffffffffffffffffffff1673ffffffffffffffffffffffffffffffffffffffff16815260200190815260200160002060009054906101000a900460ff166104b7576040517f08c379a00000000000000000000000000000000000000000000000000000000081526004016104ae90610e3d565b60405180910390fd5b6000600360003373ffffffffffffffffffffffffffffffffffffffff1673ffffffffffffffffffffffffffffffffffffffff1681526020019081526020016000205490506000811161053e576040517f08c379a000000000000000000000000000000000000000000000000000000000815260040161053590610ea9565b60405180910390fd5b60006005544761054e9190610ef8565b9050600160009054906101000a900473ffffffffffffffffffffffffffffffffffffffff1673ffffffffffffffffffffffffffffffffffffffff1663a9059cbb33846040518363ffffffff1660e01b81526004016105ad929190610f29565b6020604051808303816000875af11580156105cc573d6000803e3d6000fd5b505050506040513d601f19601f820116820180604052508101906105f09190610cf5565b61062f576040517f08c379a000000000000000000000000000000000000000000000000000000000815260040161062690610f9e565b60405180910390fd5b84156106dd57600260009054906101000a900473ffffffffffffffffffffffffffffffffffffffff1673ffffffffffffffffffffffffffffffffffffffff1663cf3783433386866040518463ffffffff1660e01b81526004016106949392919061100b565b6020604051808303816000875af11580156106b3573d6000803e3d6000fd5b505050506040513d601f19601f820116820180604052508101906106d79190611052565b506107bd565b600160009054906101000a900473ffffffffffffffffffffffffffffffffffffffff1673ffffffffffffffffffffffffffffffffffffffff1663a9059cbb33836040518363ffffffff1660e01b815260040161073a929190610f29565b6020604051808303816000875af1158015610759573d6000803e3d6000fd5b505050506040513d601f19601f8201168201806040525081019061077d9190610cf5565b6107bc576040517f08c379a00000000000000000000000000000000000000000000000000000000081526004016107b3906110cb565b60405180910390fd5b5b6000600360003373ffffffffffffffffffffffffffffffffffffffff1673ffffffffffffffffffffffffffffffffffffffff168152602001908152602001600020819055506000600460003373ffffffffffffffffffffffffffffffffffffffff1673ffffffffffffffffffffffffffffffffffffffff16815260200190815260200160002060006101000a81548160ff02191690831515021790555060016005600082825461086d91906110eb565b92505081905550505061087e6108d2565b505050565b6002600054036108c8576040517f08c379a00000000000000000000000000000000000000000000000000000000081526004016108bf9061116b565b60405180910390fd5b6002600081905550565b6001600081905550565b600080fd5b600080fd5b600073ffffffffffffffffffffffffffffffffffffffff82169050919050565b6000610911826108e6565b9050919050565b61092181610906565b811461092c57600080fd5b50565b60008135905061093e81610918565b92915050565b60006020828403121561095a576109596108dc565b5b60006109688482850161092f565b91505092915050565b6000819050919050565b61098481610971565b82525050565b600060208201905061099f600083018461097b565b92915050565b6000819050919050565b60006109ca6109c56109c0846108e6565b6109a5565b6108e6565b9050919050565b60006109dc826109af565b9050919050565b60006109ee826109d1565b9050919050565b6109fe816109e3565b82525050565b6000602082019050610a1960008301846109f5565b92915050565b610a2881610971565b8114610a3357600080fd5b50565b600081359050610a4581610a1f565b92915050565b600060208284031215610a6157610a606108dc565b5b6000610a6f84828501610a36565b91505092915050565b6000610a83826109d1565b9050919050565b610a9381610a78565b82525050565b6000602082019050610aae6000830184610a8a565b92915050565b60008115159050919050565b610ac981610ab4565b8114610ad457600080fd5b50565b600081359050610ae681610ac0565b92915050565b600080fd5b600080fd5b600080fd5b60008083601f840112610b1157610b10610aec565b5b8235905067ffffffffffffffff811115610b2e57610b2d610af1565b5b602083019150836001820283011115610b4a57610b49610af6565b5b9250929050565b600080600060408486031215610b6a57610b696108dc565b5b6000610b7886828701610ad7565b935050602084013567ffffffffffffffff811115610b9957610b986108e1565b5b610ba586828701610afb565b92509250509250925092565b600082825260208201905092915050565b7f4e6f206465706f73697420666f756e6420666f72207061727469636970616e74600082015250565b6000610bf8602083610bb1565b9150610c0382610bc2565b602082019050919050565b60006020820190508181036000830152610c2781610beb565b9050919050565b7f4465706f73697420616d6f756e74206d75737420626520706f73697469766500600082015250565b6000610c64601f83610bb1565b9150610c6f82610c2e565b602082019050919050565b60006020820190508181036000830152610c9381610c57565b9050919050565b610ca381610906565b82525050565b6000606082019050610cbe6000830186610c9a565b610ccb6020830185610c9a565b610cd8604083018461097b565b949350505050565b600081519050610cef81610ac0565b92915050565b600060208284031215610d0b57610d0a6108dc565b5b6000610d1984828501610ce0565b91505092915050565b7f4465706f736974207472616e73666572206661696c6564000000000000000000600082015250565b6000610d58601783610bb1565b9150610d6382610d22565b602082019050919050565b60006020820190508181036000830152610d8781610d4b565b9050919050565b7f4e487b7100000000000000000000000000000000000000000000000000000000600052601160045260246000fd5b6000610dc882610971565b9150610dd383610971565b9250828201905080821115610deb57610dea610d8e565b5b92915050565b7f4368616c6c656e6765206e6f7420636f6d706c65746564000000000000000000600082015250565b6000610e27601783610bb1565b9150610e3282610df1565b602082019050919050565b60006020820190508181036000830152610e5681610e1a565b9050919050565b7f4e6f206465706f73697420746f20726566756e64000000000000000000000000600082015250565b6000610e93601483610bb1565b9150610e9e82610e5d565b602082019050919050565b60006020820190508181036000830152610ec281610e86565b9050919050565b7f4e487b7100000000000000000000000000000000000000000000000000000000600052601260045260246000fd5b6000610f0382610971565b9150610f0e83610971565b925082610f1e57610f1d610ec9565b5b828204905092915050565b6000604082019050610f3e6000830185610c9a565b610f4b602083018461097b565b9392505050565b7f526566756e64207472616e73666572206661696c656400000000000000000000600082015250565b6000610f88601683610bb1565b9150610f9382610f52565b602082019050919050565b60006020820190508181036000830152610fb781610f7b565b9050919050565b82818337600083830152505050565b6000601f19601f8301169050919050565b6000610fea8385610bb1565b9350610ff7838584610fbe565b61100083610fcd565b840190509392505050565b60006040820190506110206000830186610c9a565b8181036020830152611033818486610fde565b9050949350505050565b60008151905061104c81610a1f565b92915050565b600060208284031215611068576110676108dc565b5b60006110768482850161103d565b91505092915050565b7f526577617264207472616e73666572206661696c656400000000000000000000600082015250565b60006110b5601683610bb1565b91506110c08261107f565b602082019050919050565b600060208201905081810360008301526110e4816110a8565b9050919050565b60006110f682610971565b915061110183610971565b925082820390508181111561111957611118610d8e565b5b92915050565b7f5265656e7472616e637947756172643a207265656e7472616e742063616c6c00600082015250565b6000611155601f83610bb1565b91506111608261111f565b602082019050919050565b6000602082019050818103600083015261118481611148565b905091905056fea26469706673582212200cecf229c30408dfc4ce1e9994c369afcae5a98cbe56aa9338497cec5bf834d264736f6c63430008140033",
  "linkReferences": {},
  "deployedLinkReferences": {}
}