{
  "_format": "hh-sol-artifact-1",
  "contractName": "CZNFT",
  "sourceName": "contracts/CZNFT.sol",
  "abi": [
    {
      "inputs": [],
      "stateMutability": "nonpayable",
      "type": "constructor"
    },
    {
      "anonymous": false,
      "inputs": [
        {
          "indexed": true,
          "internalType": "address",
          "name": "owner",
          "type": "address"
        },
        {
          "indexed": true,
          "internalType": "address",
          "name": "approved",
          "type": "address"
        },
        {
          "indexed": true,
          "internalType": "uint256",
          "name": "tokenId",
          "type": "uint256"
        }
      ],
      "name": "Approval",
      "type": "event"
    },
    {
      "anonymous": false,
      "inputs": [
        {
          "indexed": true,
          "internalType": "address",
          "name": "owner",
          "type": "address"
        },
        {
          "indexed": true,
          "internalType": "address",
          "name": "operator",
          "type": "address"
        },
        {
          "indexed": false,
          "internalType": "bool",
          "name": "approved",
          "type": "bool"
        }
      ],
      "name": "ApprovalForAll",
      "type": "event"
    },
    {
      "anonymous": false,
      "inputs": [
        {
          "indexed": false,
          "internalType": "uint256",
          "name": "_fromTokenId",
          "type": "uint256"
        },
        {
          "indexed": false,
          "internalType": "uint256",
          "name": "_toTokenId",
          "type": "uint256"
        }
      ],
      "name": "BatchMetadataUpdate",
      "type": "event"
    },
    {
      "anonymous": false,
      "inputs": [
        {
          "indexed": false,
          "internalType": "uint256",
          "name": "_tokenId",
          "type": "uint256"
        }
      ],
      "name": "MetadataUpdate",
      "type": "event"
    },
    {
      "anonymous": false,
      "inputs": [
        {
          "indexed": true,
          "internalType": "address",
          "name": "from",
          "type": "address"
        },
        {
          "indexed": true,
          "internalType": "address",
          "name": "to",
          "type": "address"
        },
        {
          "indexed": true,
          "internalType": "uint256",
          "name": "tokenId",
          "type": "uint256"
        }
      ],
      "name": "Transfer",
      "type": "event"
    },
    {
      "inputs": [
        {
          "internalType": "address",
          "name": "to",
          "type": "address"
        },
        {
          "internalType": "uint256",
          "name": "tokenId",
          "type": "uint256"
        }
      ],
      "name": "approve",
      "outputs": [],
      "stateMutability": "nonpayable",
      "type": "function"
    },
    {
      "inputs": [
        {
          "internalType": "address",
          "name": "player",
          "type": "address"
        },
        {
          "internalType": "string",
          "name": "tokenURI",
          "type": "string"
        }
      ],
      "name": "awardItem",
      "outputs": [
        {
          "internalType": "uint256",
          "name": "",
          "type": "uint256"
        }
      ],
      "stateMutability": "nonpayable",
      "type": "function"
    },
    {
      "inputs": [
        {
          "internalType": "address",
          "name": "owner",
          "type": "address"
        }
      ],
      "name": "balanceOf",
      "outputs": [
        {
          "internalType": "uint256",
          "name": "",
          "type": "uint256"
        }
      ],
      "stateMutability": "view",
      "type": "function"
    },
    {
      "inputs": [
        {
          "internalType": "uint256",
          "name": "tokenId",
          "type": "uint256"
        }
      ],
      "name": "getApproved",
      "outputs": [
        {
          "internalType": "address",
          "name": "",
          "type": "address"
        }
      ],
      "stateMutability": "view",
      "type": "function"
    },
    {
      "inputs": [
        {
          "internalType": "address",
          "name": "owner",
          "type": "address"
        },
        {
          "internalType": "address",
          "name": "operator",
          "type": "address"
        }
      ],
      "name": "isApprovedForAll",
      "outputs": [
        {
          "internalType": "bool",
          "name": "",
          "type": "bool"
        }
      ],
      "stateMutability": "view",
      "type": "function"
    },
    {
      "inputs": [],
      "name": "name",
      "outputs": [
        {
          "internalType": "string",
          "name": "",
          "type": "string"
        }
      ],
      "stateMutability": "view",
      "type": "function"
    },
    {
      "inputs": [
        {
          "internalType": "uint256",
          "name": "tokenId",
          "type": "uint256"
        }
      ],
      "name": "ownerOf",
      "outputs": [
        {
          "internalType": "address",
          "name": "",
          "type": "address"
        }
      ],
      "stateMutability": "view",
      "type": "function"
    },
    {
      "inputs": [
        {
          "internalType": "address",
          "name": "from",
          "type": "address"
        },
        {
          "internalType": "address",
          "name": "to",
          "type": "address"
        },
        {
          "internalType": "uint256",
          "name": "tokenId",
          "type": "uint256"
        }
      ],
      "name": "safeTransferFrom",
      "outputs": [],
      "stateMutability": "nonpayable",
      "type": "function"
    },
    {
      "inputs": [
        {
          "internalType": "address",
          "name": "from",
          "type": "address"
        },
        {
          "internalType": "address",
          "name": "to",
          "type": "address"
        },
        {
          "internalType": "uint256",
          "name": "tokenId",
          "type": "uint256"
        },
        {
          "internalType": "bytes",
          "name": "data",
          "type": "bytes"
        }
      ],
      "name": "safeTransferFrom",
      "outputs": [],
      "stateMutability": "nonpayable",
      "type": "function"
    },
    {
      "inputs": [
        {
          "internalType": "address",
          "name": "operator",
          "type": "address"
        },
        {
          "internalType": "bool",
          "name": "approved",
          "type": "bool"
        }
      ],
      "name": "setApprovalForAll",
      "outputs": [],
      "stateMutability": "nonpayable",
      "type": "function"
    },
    {
      "inputs": [
        {
          "internalType": "bytes4",
          "name": "interfaceId",
          "type": "bytes4"
        }
      ],
      "name": "supportsInterface",
      "outputs": [
        {
          "internalType": "bool",
          "name": "",
          "type": "bool"
        }
      ],
      "stateMutability": "view",
      "type": "function"
    },
    {
      "inputs": [],
      "name": "symbol",
      "outputs": [
        {
          "internalType": "string",
          "name": "",
          "type": "string"
        }
      ],
      "stateMutability": "view",
      "type": "function"
    },
    {
      "inputs": [
        {
          "internalType": "uint256",
          "name": "tokenId",
          "type": "uint256"
        }
      ],
      "name": "tokenURI",
      "outputs": [
        {
          "internalType": "string",
          "name": "",
          "type": "string"
        }
      ],
      "stateMutability": "view",
      "type": "function"
    },
    {
      "inputs": [
        {
          "internalType": "address",
          "name": "from",
          "type": "address"
        },
        {
          "internalType": "address",
          "name": "to",
          "type": "address"
        },
        {
          "internalType": "uint256",
          "name": "tokenId",
          "type": "uint256"
        }
      ],
      "name": "transferFrom",
      "outputs": [],
      "stateMutability": "nonpayable",
      "type": "function"
    }
  ],
  "bytecode": "0x60806040523480156200001157600080fd5b506040518060400160405280600a81526020017f436172626f6e5a65726f000000000000000000000000000000000000000000008152506040518060400160405280600381526020017f49544d000000000000000000000000000000000000000000000000000000000081525081600090816200008f919062000324565b508060019081620000a1919062000324565b5050506200040b565b600081519050919050565b7f4e487b7100000000000000000000000000000000000000000000000000000000600052604160045260246000fd5b7f4e487b7100000000000000000000000000000000000000000000000000000000600052602260045260246000fd5b600060028204905060018216806200012c57607f821691505b602082108103620001425762000141620000e4565b5b50919050565b60008190508160005260206000209050919050565b60006020601f8301049050919050565b600082821b905092915050565b600060088302620001ac7fffffffffffffffffffffffffffffffffffffffffffffffffffffffffffffffff826200016d565b620001b886836200016d565b95508019841693508086168417925050509392505050565b6000819050919050565b6000819050919050565b600062000205620001ff620001f984620001d0565b620001da565b620001d0565b9050919050565b6000819050919050565b6200022183620001e4565b6200023962000230826200020c565b8484546200017a565b825550505050565b600090565b6200025062000241565b6200025d81848462000216565b505050565b5b8181101562000285576200027960008262000246565b60018101905062000263565b5050565b601f821115620002d4576200029e8162000148565b620002a9846200015d565b81016020851015620002b9578190505b620002d1620002c8856200015d565b83018262000262565b50505b505050565b600082821c905092915050565b6000620002f960001984600802620002d9565b1980831691505092915050565b6000620003148383620002e6565b9150826002028217905092915050565b6200032f82620000aa565b67ffffffffffffffff8111156200034b576200034a620000b5565b5b62000357825462000113565b6200036482828562000289565b600060209050601f8311600181146200039c576000841562000387578287015190505b62000393858262000306565b86555062000403565b601f198416620003ac8662000148565b60005b82811015620003d657848901518255600182019150602085019450602081019050620003af565b86831015620003f65784890151620003f2601f891682620002e6565b8355505b6001600288020188555050505b505050505050565b612b35806200041b6000396000f3fe608060405234801561001057600080fd5b50600436106100ea5760003560e01c806370a082311161008c578063b88d4fde11610066578063b88d4fde1461025b578063c87b56dd14610277578063cf378343146102a7578063e985e9c5146102d7576100ea565b806370a08231146101f157806395d89b4114610221578063a22cb4651461023f576100ea565b8063095ea7b3116100c8578063095ea7b31461016d57806323b872dd1461018957806342842e0e146101a55780636352211e146101c1576100ea565b806301ffc9a7146100ef57806306fdde031461011f578063081812fc1461013d575b600080fd5b610109600480360381019061010491906119ad565b610307565b60405161011691906119f5565b60405180910390f35b610127610368565b6040516101349190611aa0565b60405180910390f35b61015760048036038101906101529190611af8565b6103fa565b6040516101649190611b66565b60405180910390f35b61018760048036038101906101829190611bad565b610440565b005b6101a3600480360381019061019e9190611bed565b610557565b005b6101bf60048036038101906101ba9190611bed565b6105b7565b005b6101db60048036038101906101d69190611af8565b6105d7565b6040516101e89190611b66565b60405180910390f35b61020b60048036038101906102069190611c40565b61065d565b6040516102189190611c7c565b60405180910390f35b610229610714565b6040516102369190611aa0565b60405180910390f35b61025960048036038101906102549190611cc3565b6107a6565b005b61027560048036038101906102709190611e38565b6107bc565b005b610291600480360381019061028c9190611af8565b61081e565b60405161029e9190611aa0565b60405180910390f35b6102c160048036038101906102bc9190611f5c565b610930565b6040516102ce9190611c7c565b60405180910390f35b6102f160048036038101906102ec9190611fb8565b61096a565b6040516102fe91906119f5565b60405180910390f35b6000634906490660e01b7bffffffffffffffffffffffffffffffffffffffffffffffffffffffff1916827bffffffffffffffffffffffffffffffffffffffffffffffffffffffff191614806103615750610360826109fe565b5b9050919050565b60606000805461037790612027565b80601f01602080910402602001604051908101604052809291908181526020018280546103a390612027565b80156103f05780601f106103c5576101008083540402835291602001916103f0565b820191906000526020600020905b8154815290600101906020018083116103d357829003601f168201915b5050505050905090565b600061040582610ae0565b6004600083815260200190815260200160002060009054906101000a900473ffffffffffffffffffffffffffffffffffffffff169050919050565b600061044b826105d7565b90508073ffffffffffffffffffffffffffffffffffffffff168373ffffffffffffffffffffffffffffffffffffffff16036104bb576040517f08c379a00000000000000000000000000000000000000000000000000000000081526004016104b2906120ca565b60405180910390fd5b8073ffffffffffffffffffffffffffffffffffffffff166104da610b2b565b73ffffffffffffffffffffffffffffffffffffffff161480610509575061050881610503610b2b565b61096a565b5b610548576040517f08c379a000000000000000000000000000000000000000000000000000000000815260040161053f9061215c565b60405180910390fd5b6105528383610b33565b505050565b610568610562610b2b565b82610bec565b6105a7576040517f08c379a000000000000000000000000000000000000000000000000000000000815260040161059e906121ee565b60405180910390fd5b6105b2838383610c81565b505050565b6105d2838383604051806020016040528060008152506107bc565b505050565b6000806105e383610f7a565b9050600073ffffffffffffffffffffffffffffffffffffffff168173ffffffffffffffffffffffffffffffffffffffff1603610654576040517f08c379a000000000000000000000000000000000000000000000000000000000815260040161064b9061225a565b60405180910390fd5b80915050919050565b60008073ffffffffffffffffffffffffffffffffffffffff168273ffffffffffffffffffffffffffffffffffffffff16036106cd576040517f08c379a00000000000000000000000000000000000000000000000000000000081526004016106c4906122ec565b60405180910390fd5b600360008373ffffffffffffffffffffffffffffffffffffffff1673ffffffffffffffffffffffffffffffffffffffff168152602001908152602001600020549050919050565b60606001805461072390612027565b80601f016020809104026020016040519081016040528092919081815260200182805461074f90612027565b801561079c5780601f106107715761010080835404028352916020019161079c565b820191906000526020600020905b81548152906001019060200180831161077f57829003601f168201915b5050505050905090565b6107b86107b1610b2b565b8383610fb7565b5050565b6107cd6107c7610b2b565b83610bec565b61080c576040517f08c379a0000000000000000000000000000000000000000000000000000000008152600401610803906121ee565b60405180910390fd5b61081884848484611123565b50505050565b606061082982610ae0565b600060066000848152602001908152602001600020805461084990612027565b80601f016020809104026020016040519081016040528092919081815260200182805461087590612027565b80156108c25780601f10610897576101008083540402835291602001916108c2565b820191906000526020600020905b8154815290600101906020018083116108a557829003601f168201915b5050505050905060006108d361117f565b905060008151036108e857819250505061092b565b60008251111561091d578082604051602001610905929190612348565b6040516020818303038152906040529250505061092b565b61092684611196565b925050505b919050565b600080600760008154809291906109469061239b565b91905055905061095684826111fe565b610960818461141b565b8091505092915050565b6000600560008473ffffffffffffffffffffffffffffffffffffffff1673ffffffffffffffffffffffffffffffffffffffff16815260200190815260200160002060008373ffffffffffffffffffffffffffffffffffffffff1673ffffffffffffffffffffffffffffffffffffffff16815260200190815260200160002060009054906101000a900460ff16905092915050565b60007f80ac58cd000000000000000000000000000000000000000000000000000000007bffffffffffffffffffffffffffffffffffffffffffffffffffffffff1916827bffffffffffffffffffffffffffffffffffffffffffffffffffffffff19161480610ac957507f5b5e139f000000000000000000000000000000000000000000000000000000007bffffffffffffffffffffffffffffffffffffffffffffffffffffffff1916827bffffffffffffffffffffffffffffffffffffffffffffffffffffffff1916145b80610ad95750610ad8826114bf565b5b9050919050565b610ae981611529565b610b28576040517f08c379a0000000000000000000000000000000000000000000000000000000008152600401610b1f9061225a565b60405180910390fd5b50565b600033905090565b816004600083815260200190815260200160002060006101000a81548173ffffffffffffffffffffffffffffffffffffffff021916908373ffffffffffffffffffffffffffffffffffffffff160217905550808273ffffffffffffffffffffffffffffffffffffffff16610ba6836105d7565b73ffffffffffffffffffffffffffffffffffffffff167f8c5be1e5ebec7d5bd14f71427d1e84f3dd0314c0f7b2291e5b200ac8c7c3b92560405160405180910390a45050565b600080610bf8836105d7565b90508073ffffffffffffffffffffffffffffffffffffffff168473ffffffffffffffffffffffffffffffffffffffff161480610c3a5750610c39818561096a565b5b80610c7857508373ffffffffffffffffffffffffffffffffffffffff16610c60846103fa565b73ffffffffffffffffffffffffffffffffffffffff16145b91505092915050565b8273ffffffffffffffffffffffffffffffffffffffff16610ca1826105d7565b73ffffffffffffffffffffffffffffffffffffffff1614610cf7576040517f08c379a0000000000000000000000000000000000000000000000000000000008152600401610cee90612455565b60405180910390fd5b600073ffffffffffffffffffffffffffffffffffffffff168273ffffffffffffffffffffffffffffffffffffffff1603610d66576040517f08c379a0000000000000000000000000000000000000000000000000000000008152600401610d5d906124e7565b60405180910390fd5b610d73838383600161156a565b8273ffffffffffffffffffffffffffffffffffffffff16610d93826105d7565b73ffffffffffffffffffffffffffffffffffffffff1614610de9576040517f08c379a0000000000000000000000000000000000000000000000000000000008152600401610de090612455565b60405180910390fd5b6004600082815260200190815260200160002060006101000a81549073ffffffffffffffffffffffffffffffffffffffff02191690556001600360008573ffffffffffffffffffffffffffffffffffffffff1673ffffffffffffffffffffffffffffffffffffffff168152602001908152602001600020600082825403925050819055506001600360008473ffffffffffffffffffffffffffffffffffffffff1673ffffffffffffffffffffffffffffffffffffffff16815260200190815260200160002060008282540192505081905550816002600083815260200190815260200160002060006101000a81548173ffffffffffffffffffffffffffffffffffffffff021916908373ffffffffffffffffffffffffffffffffffffffff160217905550808273ffffffffffffffffffffffffffffffffffffffff168473ffffffffffffffffffffffffffffffffffffffff167fddf252ad1be2c89b69c2b068fc378daa952ba7f163c4a11628f55a4df523b3ef60405160405180910390a4610f758383836001611570565b505050565b60006002600083815260200190815260200160002060009054906101000a900473ffffffffffffffffffffffffffffffffffffffff169050919050565b8173ffffffffffffffffffffffffffffffffffffffff168373ffffffffffffffffffffffffffffffffffffffff1603611025576040517f08c379a000000000000000000000000000000000000000000000000000000000815260040161101c90612553565b60405180910390fd5b80600560008573ffffffffffffffffffffffffffffffffffffffff1673ffffffffffffffffffffffffffffffffffffffff16815260200190815260200160002060008473ffffffffffffffffffffffffffffffffffffffff1673ffffffffffffffffffffffffffffffffffffffff16815260200190815260200160002060006101000a81548160ff0219169083151502179055508173ffffffffffffffffffffffffffffffffffffffff168373ffffffffffffffffffffffffffffffffffffffff167f17307eab39ab6107e8899845ad3d59bd9653f200f220920489ca2b5937696c318360405161111691906119f5565b60405180910390a3505050565b61112e848484610c81565b61113a84848484611576565b611179576040517f08c379a0000000000000000000000000000000000000000000000000000000008152600401611170906125e5565b60405180910390fd5b50505050565b606060405180602001604052806000815250905090565b60606111a182610ae0565b60006111ab61117f565b905060008151116111cb57604051806020016040528060008152506111f6565b806111d5846116fd565b6040516020016111e6929190612348565b6040516020818303038152906040525b915050919050565b600073ffffffffffffffffffffffffffffffffffffffff168273ffffffffffffffffffffffffffffffffffffffff160361126d576040517f08c379a000000000000000000000000000000000000000000000000000000000815260040161126490612651565b60405180910390fd5b61127681611529565b156112b6576040517f08c379a00000000000000000000000000000000000000000000000000000000081526004016112ad906126bd565b60405180910390fd5b6112c460008383600161156a565b6112cd81611529565b1561130d576040517f08c379a0000000000000000000000000000000000000000000000000000000008152600401611304906126bd565b60405180910390fd5b6001600360008473ffffffffffffffffffffffffffffffffffffffff1673ffffffffffffffffffffffffffffffffffffffff16815260200190815260200160002060008282540192505081905550816002600083815260200190815260200160002060006101000a81548173ffffffffffffffffffffffffffffffffffffffff021916908373ffffffffffffffffffffffffffffffffffffffff160217905550808273ffffffffffffffffffffffffffffffffffffffff16600073ffffffffffffffffffffffffffffffffffffffff167fddf252ad1be2c89b69c2b068fc378daa952ba7f163c4a11628f55a4df523b3ef60405160405180910390a4611417600083836001611570565b5050565b61142482611529565b611463576040517f08c379a000000000000000000000000000000000000000000000000000000000815260040161145a9061274f565b60405180910390fd5b80600660008481526020019081526020016000209081611483919061291b565b507ff8e1a15aba9398e019f0b49df1a4fde98ee17ae345cb5f6b5e2c27f5033e8ce7826040516114b39190611c7c565b60405180910390a15050565b60007f01ffc9a7000000000000000000000000000000000000000000000000000000007bffffffffffffffffffffffffffffffffffffffffffffffffffffffff1916827bffffffffffffffffffffffffffffffffffffffffffffffffffffffff1916149050919050565b60008073ffffffffffffffffffffffffffffffffffffffff1661154b83610f7a565b73ffffffffffffffffffffffffffffffffffffffff1614159050919050565b50505050565b50505050565b60006115978473ffffffffffffffffffffffffffffffffffffffff166117cb565b156116f0578373ffffffffffffffffffffffffffffffffffffffff1663150b7a026115c0610b2b565b8786866040518563ffffffff1660e01b81526004016115e29493929190612a42565b6020604051808303816000875af192505050801561161e57506040513d601f19601f8201168201806040525081019061161b9190612aa3565b60015b6116a0573d806000811461164e576040519150601f19603f3d011682016040523d82523d6000602084013e611653565b606091505b506000815103611698576040517f08c379a000000000000000000000000000000000000000000000000000000000815260040161168f906125e5565b60405180910390fd5b805181602001fd5b63150b7a0260e01b7bffffffffffffffffffffffffffffffffffffffffffffffffffffffff1916817bffffffffffffffffffffffffffffffffffffffffffffffffffffffff1916149150506116f5565b600190505b949350505050565b60606000600161170c846117ee565b01905060008167ffffffffffffffff81111561172b5761172a611d0d565b5b6040519080825280601f01601f19166020018201604052801561175d5781602001600182028036833780820191505090505b509050600082602001820190505b6001156117c0578080600190039150507f3031323334353637383961626364656600000000000000000000000000000000600a86061a8153600a85816117b4576117b3612ad0565b5b0494506000850361176b575b819350505050919050565b6000808273ffffffffffffffffffffffffffffffffffffffff163b119050919050565b600080600090507a184f03e93ff9f4daa797ed6e38ed64bf6a1f010000000000000000831061184c577a184f03e93ff9f4daa797ed6e38ed64bf6a1f010000000000000000838161184257611841612ad0565b5b0492506040810190505b6d04ee2d6d415b85acef81000000008310611889576d04ee2d6d415b85acef8100000000838161187f5761187e612ad0565b5b0492506020810190505b662386f26fc1000083106118b857662386f26fc1000083816118ae576118ad612ad0565b5b0492506010810190505b6305f5e10083106118e1576305f5e10083816118d7576118d6612ad0565b5b0492506008810190505b61271083106119065761271083816118fc576118fb612ad0565b5b0492506004810190505b60648310611929576064838161191f5761191e612ad0565b5b0492506002810190505b600a8310611938576001810190505b80915050919050565b6000604051905090565b600080fd5b600080fd5b60007fffffffff0000000000000000000000000000000000000000000000000000000082169050919050565b61198a81611955565b811461199557600080fd5b50565b6000813590506119a781611981565b92915050565b6000602082840312156119c3576119c261194b565b5b60006119d184828501611998565b91505092915050565b60008115159050919050565b6119ef816119da565b82525050565b6000602082019050611a0a60008301846119e6565b92915050565b600081519050919050565b600082825260208201905092915050565b60005b83811015611a4a578082015181840152602081019050611a2f565b60008484015250505050565b6000601f19601f8301169050919050565b6000611a7282611a10565b611a7c8185611a1b565b9350611a8c818560208601611a2c565b611a9581611a56565b840191505092915050565b60006020820190508181036000830152611aba8184611a67565b905092915050565b6000819050919050565b611ad581611ac2565b8114611ae057600080fd5b50565b600081359050611af281611acc565b92915050565b600060208284031215611b0e57611b0d61194b565b5b6000611b1c84828501611ae3565b91505092915050565b600073ffffffffffffffffffffffffffffffffffffffff82169050919050565b6000611b5082611b25565b9050919050565b611b6081611b45565b82525050565b6000602082019050611b7b6000830184611b57565b92915050565b611b8a81611b45565b8114611b9557600080fd5b50565b600081359050611ba781611b81565b92915050565b60008060408385031215611bc457611bc361194b565b5b6000611bd285828601611b98565b9250506020611be385828601611ae3565b9150509250929050565b600080600060608486031215611c0657611c0561194b565b5b6000611c1486828701611b98565b9350506020611c2586828701611b98565b9250506040611c3686828701611ae3565b9150509250925092565b600060208284031215611c5657611c5561194b565b5b6000611c6484828501611b98565b91505092915050565b611c7681611ac2565b82525050565b6000602082019050611c916000830184611c6d565b92915050565b611ca0816119da565b8114611cab57600080fd5b50565b600081359050611cbd81611c97565b92915050565b60008060408385031215611cda57611cd961194b565b5b6000611ce885828601611b98565b9250506020611cf985828601611cae565b9150509250929050565b600080fd5b600080fd5b7f4e487b7100000000000000000000000000000000000000000000000000000000600052604160045260246000fd5b611d4582611a56565b810181811067ffffffffffffffff82111715611d6457611d63611d0d565b5b80604052505050565b6000611d77611941565b9050611d838282611d3c565b919050565b600067ffffffffffffffff821115611da357611da2611d0d565b5b611dac82611a56565b9050602081019050919050565b82818337600083830152505050565b6000611ddb611dd684611d88565b611d6d565b905082815260208101848484011115611df757611df6611d08565b5b611e02848285611db9565b509392505050565b600082601f830112611e1f57611e1e611d03565b5b8135611e2f848260208601611dc8565b91505092915050565b60008060008060808587031215611e5257611e5161194b565b5b6000611e6087828801611b98565b9450506020611e7187828801611b98565b9350506040611e8287828801611ae3565b925050606085013567ffffffffffffffff811115611ea357611ea2611950565b5b611eaf87828801611e0a565b91505092959194509250565b600067ffffffffffffffff821115611ed657611ed5611d0d565b5b611edf82611a56565b9050602081019050919050565b6000611eff611efa84611ebb565b611d6d565b905082815260208101848484011115611f1b57611f1a611d08565b5b611f26848285611db9565b509392505050565b600082601f830112611f4357611f42611d03565b5b8135611f53848260208601611eec565b91505092915050565b60008060408385031215611f7357611f7261194b565b5b6000611f8185828601611b98565b925050602083013567ffffffffffffffff811115611fa257611fa1611950565b5b611fae85828601611f2e565b9150509250929050565b60008060408385031215611fcf57611fce61194b565b5b6000611fdd85828601611b98565b9250506020611fee85828601611b98565b9150509250929050565b7f4e487b7100000000000000000000000000000000000000000000000000000000600052602260045260246000fd5b6000600282049050600182168061203f57607f821691505b60208210810361205257612051611ff8565b5b50919050565b7f4552433732313a20617070726f76616c20746f2063757272656e74206f776e6560008201527f7200000000000000000000000000000000000000000000000000000000000000602082015250565b60006120b4602183611a1b565b91506120bf82612058565b604082019050919050565b600060208201905081810360008301526120e3816120a7565b9050919050565b7f4552433732313a20617070726f76652063616c6c6572206973206e6f7420746f60008201527f6b656e206f776e6572206f7220617070726f76656420666f7220616c6c000000602082015250565b6000612146603d83611a1b565b9150612151826120ea565b604082019050919050565b6000602082019050818103600083015261217581612139565b9050919050565b7f4552433732313a2063616c6c6572206973206e6f7420746f6b656e206f776e6560008201527f72206f7220617070726f76656400000000000000000000000000000000000000602082015250565b60006121d8602d83611a1b565b91506121e38261217c565b604082019050919050565b60006020820190508181036000830152612207816121cb565b9050919050565b7f4552433732313a20696e76616c696420746f6b656e2049440000000000000000600082015250565b6000612244601883611a1b565b915061224f8261220e565b602082019050919050565b6000602082019050818103600083015261227381612237565b9050919050565b7f4552433732313a2061646472657373207a65726f206973206e6f74206120766160008201527f6c6964206f776e65720000000000000000000000000000000000000000000000602082015250565b60006122d6602983611a1b565b91506122e18261227a565b604082019050919050565b60006020820190508181036000830152612305816122c9565b9050919050565b600081905092915050565b600061232282611a10565b61232c818561230c565b935061233c818560208601611a2c565b80840191505092915050565b60006123548285612317565b91506123608284612317565b91508190509392505050565b7f4e487b7100000000000000000000000000000000000000000000000000000000600052601160045260246000fd5b60006123a682611ac2565b91507fffffffffffffffffffffffffffffffffffffffffffffffffffffffffffffffff82036123d8576123d761236c565b5b600182019050919050565b7f4552433732313a207472616e736665722066726f6d20696e636f72726563742060008201527f6f776e6572000000000000000000000000000000000000000000000000000000602082015250565b600061243f602583611a1b565b915061244a826123e3565b604082019050919050565b6000602082019050818103600083015261246e81612432565b9050919050565b7f4552433732313a207472616e7366657220746f20746865207a65726f2061646460008201527f7265737300000000000000000000000000000000000000000000000000000000602082015250565b60006124d1602483611a1b565b91506124dc82612475565b604082019050919050565b60006020820190508181036000830152612500816124c4565b9050919050565b7f4552433732313a20617070726f766520746f2063616c6c657200000000000000600082015250565b600061253d601983611a1b565b915061254882612507565b602082019050919050565b6000602082019050818103600083015261256c81612530565b9050919050565b7f4552433732313a207472616e7366657220746f206e6f6e20455243373231526560008201527f63656976657220696d706c656d656e7465720000000000000000000000000000602082015250565b60006125cf603283611a1b565b91506125da82612573565b604082019050919050565b600060208201905081810360008301526125fe816125c2565b9050919050565b7f4552433732313a206d696e7420746f20746865207a65726f2061646472657373600082015250565b600061263b602083611a1b565b915061264682612605565b602082019050919050565b6000602082019050818103600083015261266a8161262e565b9050919050565b7f4552433732313a20746f6b656e20616c7265616479206d696e74656400000000600082015250565b60006126a7601c83611a1b565b91506126b282612671565b602082019050919050565b600060208201905081810360008301526126d68161269a565b9050919050565b7f45524337323155524953746f726167653a2055524920736574206f66206e6f6e60008201527f6578697374656e7420746f6b656e000000000000000000000000000000000000602082015250565b6000612739602e83611a1b565b9150612744826126dd565b604082019050919050565b600060208201905081810360008301526127688161272c565b9050919050565b60008190508160005260206000209050919050565b60006020601f8301049050919050565b600082821b905092915050565b6000600883026127d17fffffffffffffffffffffffffffffffffffffffffffffffffffffffffffffffff82612794565b6127db8683612794565b95508019841693508086168417925050509392505050565b6000819050919050565b600061281861281361280e84611ac2565b6127f3565b611ac2565b9050919050565b6000819050919050565b612832836127fd565b61284661283e8261281f565b8484546127a1565b825550505050565b600090565b61285b61284e565b612866818484612829565b505050565b5b8181101561288a5761287f600082612853565b60018101905061286c565b5050565b601f8211156128cf576128a08161276f565b6128a984612784565b810160208510156128b8578190505b6128cc6128c485612784565b83018261286b565b50505b505050565b600082821c905092915050565b60006128f2600019846008026128d4565b1980831691505092915050565b600061290b83836128e1565b9150826002028217905092915050565b61292482611a10565b67ffffffffffffffff81111561293d5761293c611d0d565b5b6129478254612027565b61295282828561288e565b600060209050601f8311600181146129855760008415612973578287015190505b61297d85826128ff565b8655506129e5565b601f1984166129938661276f565b60005b828110156129bb57848901518255600182019150602085019450602081019050612996565b868310156129d857848901516129d4601f8916826128e1565b8355505b6001600288020188555050505b505050505050565b600081519050919050565b600082825260208201905092915050565b6000612a14826129ed565b612a1e81856129f8565b9350612a2e818560208601611a2c565b612a3781611a56565b840191505092915050565b6000608082019050612a576000830187611b57565b612a646020830186611b57565b612a716040830185611c6d565b8181036060830152612a838184612a09565b905095945050505050565b600081519050612a9d81611981565b92915050565b600060208284031215612ab957612ab861194b565b5b6000612ac784828501612a8e565b91505092915050565b7f4e487b7100000000000000000000000000000000000000000000000000000000600052601260045260246000fdfea2646970667358221220d2a86fd0cfa5458be22ee316abf4a7db12ea57babd7ee9a8068b7b5d2a4bd44064736f6c63430008140033",
  "linkReferences": {},
  "deployedLinkReferences": {}
}