{
  "_format": "hh-sol-artifact-1",
  "contractName": "Manager",
  "sourceName": "contracts/Manager.sol",
  "abi": [
    {
      "inputs": [
        {
          "internalType": "address",
          "name": "_czTokenAddress",
          "type": "address"
        },
        {
          "internalType": "address",
          "name": "_cznftAddress",
          "type": "address"
        }
      ],
      "stateMutability": "nonpayable",
      "type": "constructor"
    },
    {
      "anonymous": false,
      "inputs": [
        {
          "indexed": true,
          "internalType": "address",
          "name": "carbonProjectAddress",
          "type": "address"
        }
      ],
      "name": "CarbonProjectCreated",
      "type": "event"
    },
    {
      "anonymous": false,
      "inputs": [
        {
          "indexed": true,
          "internalType": "address",
          "name": "carbonProjectAddress",
          "type": "address"
        },
        {
          "indexed": true,
          "internalType": "address",
          "name": "challengePoolAddress",
          "type": "address"
        }
      ],
      "name": "ChallengePoolCreated",
      "type": "event"
    },
    {
      "anonymous": false,
      "inputs": [
        {
          "indexed": true,
          "internalType": "address",
          "name": "previousOwner",
          "type": "address"
        },
        {
          "indexed": true,
          "internalType": "address",
          "name": "newOwner",
          "type": "address"
        }
      ],
      "name": "OwnershipTransferred",
      "type": "event"
    },
    {
      "inputs": [
        {
          "internalType": "uint256",
          "name": "",
          "type": "uint256"
        }
      ],
      "name": "carbonProjects",
      "outputs": [
        {
          "internalType": "address",
          "name": "",
          "type": "address"
        }
      ],
      "stateMutability": "view",
      "type": "function"
    },
    {
      "inputs": [
        {
          "internalType": "address",
          "name": "",
          "type": "address"
        }
      ],
      "name": "challengePools",
      "outputs": [
        {
          "internalType": "address",
          "name": "",
          "type": "address"
        }
      ],
      "stateMutability": "view",
      "type": "function"
    },
    {
      "inputs": [],
      "name": "createCarbonProject",
      "outputs": [],
      "stateMutability": "nonpayable",
      "type": "function"
    },
    {
      "inputs": [
        {
          "internalType": "address",
          "name": "carbonProjectAddress",
          "type": "address"
        }
      ],
      "name": "createChallengePool",
      "outputs": [],
      "stateMutability": "nonpayable",
      "type": "function"
    },
    {
      "inputs": [],
      "name": "czTokenAddress",
      "outputs": [
        {
          "internalType": "address",
          "name": "",
          "type": "address"
        }
      ],
      "stateMutability": "view",
      "type": "function"
    },
    {
      "inputs": [],
      "name": "cznftAddress",
      "outputs": [
        {
          "internalType": "address",
          "name": "",
          "type": "address"
        }
      ],
      "stateMutability": "view",
      "type": "function"
    },
    {
      "inputs": [],
      "name": "owner",
      "outputs": [
        {
          "internalType": "address",
          "name": "",
          "type": "address"
        }
      ],
      "stateMutability": "view",
      "type": "function"
    },
    {
      "inputs": [],
      "name": "renounceOwnership",
      "outputs": [],
      "stateMutability": "nonpayable",
      "type": "function"
    },
    {
      "inputs": [
        {
          "internalType": "address",
          "name": "newOwner",
          "type": "address"
        }
      ],
      "name": "transferOwnership",
      "outputs": [],
      "stateMutability": "nonpayable",
      "type": "function"
    }
  ],
  "bytecode": "0x60806040523480156200001157600080fd5b506040516200333138038062003331833981810160405281019062000037919062000217565b620000576200004b620000e160201b60201c565b620000e960201b60201c565b81600160006101000a81548173ffffffffffffffffffffffffffffffffffffffff021916908373ffffffffffffffffffffffffffffffffffffffff16021790555080600260006101000a81548173ffffffffffffffffffffffffffffffffffffffff021916908373ffffffffffffffffffffffffffffffffffffffff16021790555050506200025e565b600033905090565b60008060009054906101000a900473ffffffffffffffffffffffffffffffffffffffff169050816000806101000a81548173ffffffffffffffffffffffffffffffffffffffff021916908373ffffffffffffffffffffffffffffffffffffffff1602179055508173ffffffffffffffffffffffffffffffffffffffff168173ffffffffffffffffffffffffffffffffffffffff167f8be0079c531659141344cd1fd0a4f28419497f9722a3daafe3b4186f6b6457e060405160405180910390a35050565b600080fd5b600073ffffffffffffffffffffffffffffffffffffffff82169050919050565b6000620001df82620001b2565b9050919050565b620001f181620001d2565b8114620001fd57600080fd5b50565b6000815190506200021181620001e6565b92915050565b60008060408385031215620002315762000230620001ad565b5b6000620002418582860162000200565b9250506020620002548582860162000200565b9150509250929050565b6130c3806200026e6000396000f3fe608060405234801561001057600080fd5b50600436106100935760003560e01c8063715018a611610066578063715018a61461010c5780638da5cb5b14610116578063d1e624ac14610134578063e3c80e3814610164578063f2fde38b1461018257610093565b80630aac3cd5146100985780632bbf2872146100b65780633468721a146100c05780634c1b8b18146100dc575b600080fd5b6100a061019e565b6040516100ad9190610852565b60405180910390f35b6100be6101c4565b005b6100da60048036038101906100d5919061089e565b6102a2565b005b6100f660048036038101906100f19190610901565b610553565b6040516101039190610852565b60405180910390f35b610114610592565b005b61011e6105a6565b60405161012b9190610852565b60405180910390f35b61014e6004803603810190610149919061089e565b6105cf565b60405161015b9190610852565b60405180910390f35b61016c610602565b6040516101799190610852565b60405180910390f35b61019c6004803603810190610197919061089e565b610628565b005b600260009054906101000a900473ffffffffffffffffffffffffffffffffffffffff1681565b6101cc6106ab565b60006040516101da906107f5565b604051809103906000f0801580156101f6573d6000803e3d6000fd5b5090506003819080600181540180825580915050600190039060005260206000200160009091909190916101000a81548173ffffffffffffffffffffffffffffffffffffffff021916908373ffffffffffffffffffffffffffffffffffffffff1602179055508073ffffffffffffffffffffffffffffffffffffffff167f064330cf83e4bed7e3f769cea844575b0de409a5a336cf3a7cea2164bc1f514d60405160405180910390a250565b6102aa6106ab565b600073ffffffffffffffffffffffffffffffffffffffff168173ffffffffffffffffffffffffffffffffffffffff1603610319576040517f08c379a00000000000000000000000000000000000000000000000000000000081526004016103109061098b565b60405180910390fd5b6000805b6003805490508110156103b7578273ffffffffffffffffffffffffffffffffffffffff1660038281548110610355576103546109ab565b5b9060005260206000200160009054906101000a900473ffffffffffffffffffffffffffffffffffffffff1673ffffffffffffffffffffffffffffffffffffffff16036103a457600191506103b7565b80806103af90610a09565b91505061031d565b50806103f8576040517f08c379a00000000000000000000000000000000000000000000000000000000081526004016103ef90610a9d565b60405180910390fd5b6000600160009054906101000a900473ffffffffffffffffffffffffffffffffffffffff16600260009054906101000a900473ffffffffffffffffffffffffffffffffffffffff1660405161044c90610803565b610457929190610abd565b604051809103906000f080158015610473573d6000803e3d6000fd5b50905080600460008573ffffffffffffffffffffffffffffffffffffffff1673ffffffffffffffffffffffffffffffffffffffff16815260200190815260200160002060006101000a81548173ffffffffffffffffffffffffffffffffffffffff021916908373ffffffffffffffffffffffffffffffffffffffff1602179055508073ffffffffffffffffffffffffffffffffffffffff168373ffffffffffffffffffffffffffffffffffffffff167fac915d5acb19f3816fd67353432fae5b166df25d3f409d274db887469f09a39a60405160405180910390a3505050565b6003818154811061056357600080fd5b906000526020600020016000915054906101000a900473ffffffffffffffffffffffffffffffffffffffff1681565b61059a6106ab565b6105a46000610729565b565b60008060009054906101000a900473ffffffffffffffffffffffffffffffffffffffff16905090565b60046020528060005260406000206000915054906101000a900473ffffffffffffffffffffffffffffffffffffffff1681565b600160009054906101000a900473ffffffffffffffffffffffffffffffffffffffff1681565b6106306106ab565b600073ffffffffffffffffffffffffffffffffffffffff168173ffffffffffffffffffffffffffffffffffffffff160361069f576040517f08c379a000000000000000000000000000000000000000000000000000000000815260040161069690610b58565b60405180910390fd5b6106a881610729565b50565b6106b36107ed565b73ffffffffffffffffffffffffffffffffffffffff166106d16105a6565b73ffffffffffffffffffffffffffffffffffffffff1614610727576040517f08c379a000000000000000000000000000000000000000000000000000000000815260040161071e90610bc4565b60405180910390fd5b565b60008060009054906101000a900473ffffffffffffffffffffffffffffffffffffffff169050816000806101000a81548173ffffffffffffffffffffffffffffffffffffffff021916908373ffffffffffffffffffffffffffffffffffffffff1602179055508173ffffffffffffffffffffffffffffffffffffffff168173ffffffffffffffffffffffffffffffffffffffff167f8be0079c531659141344cd1fd0a4f28419497f9722a3daafe3b4186f6b6457e060405160405180910390a35050565b600033905090565b61115e8062000be583390190565b61134b8062001d4383390190565b600073ffffffffffffffffffffffffffffffffffffffff82169050919050565b600061083c82610811565b9050919050565b61084c81610831565b82525050565b60006020820190506108676000830184610843565b92915050565b600080fd5b61087b81610831565b811461088657600080fd5b50565b60008135905061089881610872565b92915050565b6000602082840312156108b4576108b361086d565b5b60006108c284828501610889565b91505092915050565b6000819050919050565b6108de816108cb565b81146108e957600080fd5b50565b6000813590506108fb816108d5565b92915050565b6000602082840312156109175761091661086d565b5b6000610925848285016108ec565b91505092915050565b600082825260208201905092915050565b7f496e76616c696420436172626f6e50726f6a65637420616464726573732e0000600082015250565b6000610975601e8361092e565b91506109808261093f565b602082019050919050565b600060208201905081810360008301526109a481610968565b9050919050565b7f4e487b7100000000000000000000000000000000000000000000000000000000600052603260045260246000fd5b7f4e487b7100000000000000000000000000000000000000000000000000000000600052601160045260246000fd5b6000610a14826108cb565b91507fffffffffffffffffffffffffffffffffffffffffffffffffffffffffffffffff8203610a4657610a456109da565b5b600182019050919050565b7f436172626f6e50726f6a65637420646f6573206e6f742065786973742e000000600082015250565b6000610a87601d8361092e565b9150610a9282610a51565b602082019050919050565b60006020820190508181036000830152610ab681610a7a565b9050919050565b6000604082019050610ad26000830185610843565b610adf6020830184610843565b9392505050565b7f4f776e61626c653a206e6577206f776e657220697320746865207a65726f206160008201527f6464726573730000000000000000000000000000000000000000000000000000602082015250565b6000610b4260268361092e565b9150610b4d82610ae6565b604082019050919050565b60006020820190508181036000830152610b7181610b35565b9050919050565b7f4f776e61626c653a2063616c6c6572206973206e6f7420746865206f776e6572600082015250565b6000610bae60208361092e565b9150610bb982610b78565b602082019050919050565b60006020820190508181036000830152610bdd81610ba1565b905091905056fe6080604052600160005534801561001557600080fd5b5033600260006101000a81548173ffffffffffffffffffffffffffffffffffffffff021916908373ffffffffffffffffffffffffffffffffffffffff1602179055506110f8806100666000396000f3fe608060405234801561001057600080fd5b50600436106100415760003560e01c8063107046bd1461004657806355a889711461007b57806391754a5d14610097575b600080fd5b610060600480360381019061005b91906106f0565b6100b3565b6040516100729695949392919061088f565b60405180910390f35b61009560048036038101906100909190610923565b6101b1565b005b6100b160048036038101906100ac9190610a98565b610359565b005b60016020528060005260406000206000915090508060000154908060010160009054906101000a900473ffffffffffffffffffffffffffffffffffffffff169080600201805461010290610b23565b80601f016020809104026020016040519081016040528092919081815260200182805461012e90610b23565b801561017b5780601f106101505761010080835404028352916020019161017b565b820191906000526020600020905b81548152906001019060200180831161015e57829003601f168201915b5050505050908060030154908060040160009054906101000a900460ff16908060040160019054906101000a900460ff16905086565b600260009054906101000a900473ffffffffffffffffffffffffffffffffffffffff1673ffffffffffffffffffffffffffffffffffffffff163373ffffffffffffffffffffffffffffffffffffffff1614610241576040517f08c379a000000000000000000000000000000000000000000000000000000000815260040161023890610bc6565b60405180910390fd5b816000548110801561026a57506000600160008381526020019081526020016000206000015414155b6102a9576040517f08c379a00000000000000000000000000000000000000000000000000000000081526004016102a090610c32565b60405180910390fd5b6000600160008581526020019081526020016000209050826102cc5760026102cf565b60015b8160040160006101000a81548160ff021916908360028111156102f5576102f46107fd565b5b0217905550837f7997e5bbbe80d69f3765212b27b71c66ade26afdcc5afaa108a7a0b7db3e917d8260040160009054906101000a900460ff1660405161033b9190610c52565b60405180910390a28215610353576103528461052c565b5b50505050565b610362826105f2565b6103a1576040517f08c379a000000000000000000000000000000000000000000000000000000000815260040161039890610cb9565b60405180910390fd5b60008060008154809291906103b590610d08565b9190505590506040518060c001604052808281526020013373ffffffffffffffffffffffffffffffffffffffff16815260200184815260200183815260200160006002811115610408576104076107fd565b5b815260200160001515815250600160008381526020019081526020016000206000820151816000015560208201518160010160006101000a81548173ffffffffffffffffffffffffffffffffffffffff021916908373ffffffffffffffffffffffffffffffffffffffff160217905550604082015181600201908161048d9190610efc565b506060820151816003015560808201518160040160006101000a81548160ff021916908360028111156104c3576104c26107fd565b5b021790555060a08201518160040160016101000a81548160ff021916908315150217905550905050807f51d08cb6cfa640a387210fb69df925dfb70169ae7373f8ecd40b977b0c800d9a33858560405161051f93929190610fce565b60405180910390a2505050565b60006001600083815260200190815260200160002090508060040160019054906101000a900460ff1615610595576040517f08c379a000000000000000000000000000000000000000000000000000000000815260040161058c90611058565b60405180910390fd5b60018160040160016101000a81548160ff021916908315150217905550817fd3976976a0945c8167f32bc3cd628c3cf29deddbbe6d096c8e123016af93c0c182600301546040516105e69190611078565b60405180910390a25050565b6000808290506000600c905060006001905060005b8351811015610698577f2d0000000000000000000000000000000000000000000000000000000000000084828151811061064457610643611093565b5b602001015160f81c60f81b7effffffffffffffffffffffffffffffffffffffffffffffffffffffffffffff19160361068557818061068190610d08565b9250505b808061069090610d08565b915050610607565b508181149350505050919050565b6000604051905090565b600080fd5b600080fd5b6000819050919050565b6106cd816106ba565b81146106d857600080fd5b50565b6000813590506106ea816106c4565b92915050565b600060208284031215610706576107056106b0565b5b6000610714848285016106db565b91505092915050565b610726816106ba565b82525050565b600073ffffffffffffffffffffffffffffffffffffffff82169050919050565b60006107578261072c565b9050919050565b6107678161074c565b82525050565b600081519050919050565b600082825260208201905092915050565b60005b838110156107a757808201518184015260208101905061078c565b60008484015250505050565b6000601f19601f8301169050919050565b60006107cf8261076d565b6107d98185610778565b93506107e9818560208601610789565b6107f2816107b3565b840191505092915050565b7f4e487b7100000000000000000000000000000000000000000000000000000000600052602160045260246000fd5b6003811061083d5761083c6107fd565b5b50565b600081905061084e8261082c565b919050565b600061085e82610840565b9050919050565b61086e81610853565b82525050565b60008115159050919050565b61088981610874565b82525050565b600060c0820190506108a4600083018961071d565b6108b1602083018861075e565b81810360408301526108c381876107c4565b90506108d2606083018661071d565b6108df6080830185610865565b6108ec60a0830184610880565b979650505050505050565b61090081610874565b811461090b57600080fd5b50565b60008135905061091d816108f7565b92915050565b6000806040838503121561093a576109396106b0565b5b6000610948858286016106db565b92505060206109598582860161090e565b9150509250929050565b600080fd5b600080fd5b7f4e487b7100000000000000000000000000000000000000000000000000000000600052604160045260246000fd5b6109a5826107b3565b810181811067ffffffffffffffff821117156109c4576109c361096d565b5b80604052505050565b60006109d76106a6565b90506109e3828261099c565b919050565b600067ffffffffffffffff821115610a0357610a0261096d565b5b610a0c826107b3565b9050602081019050919050565b82818337600083830152505050565b6000610a3b610a36846109e8565b6109cd565b905082815260208101848484011115610a5757610a56610968565b5b610a62848285610a19565b509392505050565b600082601f830112610a7f57610a7e610963565b5b8135610a8f848260208601610a28565b91505092915050565b60008060408385031215610aaf57610aae6106b0565b5b600083013567ffffffffffffffff811115610acd57610acc6106b5565b5b610ad985828601610a6a565b9250506020610aea858286016106db565b9150509250929050565b7f4e487b7100000000000000000000000000000000000000000000000000000000600052602260045260246000fd5b60006002820490506001821680610b3b57607f821691505b602082108103610b4e57610b4d610af4565b5b50919050565b7f4f6e6c792061646d696e2063616e20706572666f726d2074686973206163746960008201527f6f6e000000000000000000000000000000000000000000000000000000000000602082015250565b6000610bb0602283610778565b9150610bbb82610b54565b604082019050919050565b60006020820190508181036000830152610bdf81610ba3565b9050919050565b7f50726f6a65637420646f6573206e6f7420657869737400000000000000000000600082015250565b6000610c1c601683610778565b9150610c2782610be6565b602082019050919050565b60006020820190508181036000830152610c4b81610c0f565b9050919050565b6000602082019050610c676000830184610865565b92915050565b7f496e76616c69642073657269616c206e756d62657220666f726d617400000000600082015250565b6000610ca3601c83610778565b9150610cae82610c6d565b602082019050919050565b60006020820190508181036000830152610cd281610c96565b9050919050565b7f4e487b7100000000000000000000000000000000000000000000000000000000600052601160045260246000fd5b6000610d13826106ba565b91507fffffffffffffffffffffffffffffffffffffffffffffffffffffffffffffffff8203610d4557610d44610cd9565b5b600182019050919050565b60008190508160005260206000209050919050565b60006020601f8301049050919050565b600082821b905092915050565b600060088302610db27fffffffffffffffffffffffffffffffffffffffffffffffffffffffffffffffff82610d75565b610dbc8683610d75565b95508019841693508086168417925050509392505050565b6000819050919050565b6000610df9610df4610def846106ba565b610dd4565b6106ba565b9050919050565b6000819050919050565b610e1383610dde565b610e27610e1f82610e00565b848454610d82565b825550505050565b600090565b610e3c610e2f565b610e47818484610e0a565b505050565b5b81811015610e6b57610e60600082610e34565b600181019050610e4d565b5050565b601f821115610eb057610e8181610d50565b610e8a84610d65565b81016020851015610e99578190505b610ead610ea585610d65565b830182610e4c565b50505b505050565b600082821c905092915050565b6000610ed360001984600802610eb5565b1980831691505092915050565b6000610eec8383610ec2565b9150826002028217905092915050565b610f058261076d565b67ffffffffffffffff811115610f1e57610f1d61096d565b5b610f288254610b23565b610f33828285610e6f565b600060209050601f831160018114610f665760008415610f54578287015190505b610f5e8582610ee0565b865550610fc6565b601f198416610f7486610d50565b60005b82811015610f9c57848901518255600182019150602085019450602081019050610f77565b86831015610fb95784890151610fb5601f891682610ec2565b8355505b6001600288020188555050505b505050505050565b6000606082019050610fe3600083018661075e565b8181036020830152610ff581856107c4565b9050611004604083018461071d565b949350505050565b7f436172626f6e2063726564697420616c7265616479207265636f726465640000600082015250565b6000611042601e83610778565b915061104d8261100c565b602082019050919050565b6000602082019050818103600083015261107181611035565b9050919050565b600060208201905061108d600083018461071d565b92915050565b7f4e487b7100000000000000000000000000000000000000000000000000000000600052603260045260246000fdfea26469706673582212207a662dcf976bf996a7fbf173e47cb890da3544b91ca5fd8408d6a3e22336e2d964736f6c6343000814003360806040523480156200001157600080fd5b506040516200134b3803806200134b833981810160405281019062000037919062000133565b600160008190555081600160006101000a81548173ffffffffffffffffffffffffffffffffffffffff021916908373ffffffffffffffffffffffffffffffffffffffff16021790555080600260006101000a81548173ffffffffffffffffffffffffffffffffffffffff021916908373ffffffffffffffffffffffffffffffffffffffff16021790555050506200017a565b600080fd5b600073ffffffffffffffffffffffffffffffffffffffff82169050919050565b6000620000fb82620000ce565b9050919050565b6200010d81620000ee565b81146200011957600080fd5b50565b6000815190506200012d8162000102565b92915050565b600080604083850312156200014d576200014c620000c9565b5b60006200015d858286016200011c565b925050602062000170858286016200011c565b9150509250929050565b6111c1806200018a6000396000f3fe608060405234801561001057600080fd5b50600436106100625760003560e01c80636828deaa14610067578063a26dbf2614610083578063b27e1203146100a1578063b6b55f25146100bf578063dcc20a28146100db578063f3ed00e1146100f9575b600080fd5b610081600480360381019061007c9190610944565b610115565b005b61008b6101f2565b604051610098919061098a565b60405180910390f35b6100a96101f8565b6040516100b69190610a04565b60405180910390f35b6100d960048036038101906100d49190610a4b565b61021e565b005b6100e36103fd565b6040516100f09190610a99565b60405180910390f35b610113600480360381019061010e9190610b51565b610423565b005b6000600360008373ffffffffffffffffffffffffffffffffffffffff1673ffffffffffffffffffffffffffffffffffffffff1681526020019081526020016000205411610197576040517f08c379a000000000000000000000000000000000000000000000000000000000815260040161018e90610c0e565b60405180910390fd5b6001600460008373ffffffffffffffffffffffffffffffffffffffff1673ffffffffffffffffffffffffffffffffffffffff16815260200190815260200160002060006101000a81548160ff02191690831515021790555050565b60055481565b600160009054906101000a900473ffffffffffffffffffffffffffffffffffffffff1681565b60008111610261576040517f08c379a000000000000000000000000000000000000000000000000000000000815260040161025890610c7a565b60405180910390fd5b600160009054906101000a900473ffffffffffffffffffffffffffffffffffffffff1673ffffffffffffffffffffffffffffffffffffffff166323b872dd3330846040518463ffffffff1660e01b81526004016102c093929190610ca9565b6020604051808303816000875af11580156102df573d6000803e3d6000fd5b505050506040513d601f19601f820116820180604052508101906103039190610cf5565b610342576040517f08c379a000000000000000000000000000000000000000000000000000000000815260040161033990610d6e565b60405180910390fd5b6000600360003373ffffffffffffffffffffffffffffffffffffffff1673ffffffffffffffffffffffffffffffffffffffff16815260200190815260200160002054036103a45760016005600082825461039c9190610dbd565b925050819055505b80600360003373ffffffffffffffffffffffffffffffffffffffff1673ffffffffffffffffffffffffffffffffffffffff16815260200190815260200160002060008282546103f39190610dbd565b9250508190555050565b600260009054906101000a900473ffffffffffffffffffffffffffffffffffffffff1681565b61042b610883565b600460003373ffffffffffffffffffffffffffffffffffffffff1673ffffffffffffffffffffffffffffffffffffffff16815260200190815260200160002060009054906101000a900460ff166104b7576040517f08c379a00000000000000000000000000000000000000000000000000000000081526004016104ae90610e3d565b60405180910390fd5b6000600360003373ffffffffffffffffffffffffffffffffffffffff1673ffffffffffffffffffffffffffffffffffffffff1681526020019081526020016000205490506000811161053e576040517f08c379a000000000000000000000000000000000000000000000000000000000815260040161053590610ea9565b60405180910390fd5b60006005544761054e9190610ef8565b9050600160009054906101000a900473ffffffffffffffffffffffffffffffffffffffff1673ffffffffffffffffffffffffffffffffffffffff1663a9059cbb33846040518363ffffffff1660e01b81526004016105ad929190610f29565b6020604051808303816000875af11580156105cc573d6000803e3d6000fd5b505050506040513d601f19601f820116820180604052508101906105f09190610cf5565b61062f576040517f08c379a000000000000000000000000000000000000000000000000000000000815260040161062690610f9e565b60405180910390fd5b84156106dd57600260009054906101000a900473ffffffffffffffffffffffffffffffffffffffff1673ffffffffffffffffffffffffffffffffffffffff1663cf3783433386866040518463ffffffff1660e01b81526004016106949392919061100b565b6020604051808303816000875af11580156106b3573d6000803e3d6000fd5b505050506040513d601f19601f820116820180604052508101906106d79190611052565b506107bd565b600160009054906101000a900473ffffffffffffffffffffffffffffffffffffffff1673ffffffffffffffffffffffffffffffffffffffff1663a9059cbb33836040518363ffffffff1660e01b815260040161073a929190610f29565b6020604051808303816000875af1158015610759573d6000803e3d6000fd5b505050506040513d601f19601f8201168201806040525081019061077d9190610cf5565b6107bc576040517f08c379a00000000000000000000000000000000000000000000000000000000081526004016107b3906110cb565b60405180910390fd5b5b6000600360003373ffffffffffffffffffffffffffffffffffffffff1673ffffffffffffffffffffffffffffffffffffffff168152602001908152602001600020819055506000600460003373ffffffffffffffffffffffffffffffffffffffff1673ffffffffffffffffffffffffffffffffffffffff16815260200190815260200160002060006101000a81548160ff02191690831515021790555060016005600082825461086d91906110eb565b92505081905550505061087e6108d2565b505050565b6002600054036108c8576040517f08c379a00000000000000000000000000000000000000000000000000000000081526004016108bf9061116b565b60405180910390fd5b6002600081905550565b6001600081905550565b600080fd5b600080fd5b600073ffffffffffffffffffffffffffffffffffffffff82169050919050565b6000610911826108e6565b9050919050565b61092181610906565b811461092c57600080fd5b50565b60008135905061093e81610918565b92915050565b60006020828403121561095a576109596108dc565b5b60006109688482850161092f565b91505092915050565b6000819050919050565b61098481610971565b82525050565b600060208201905061099f600083018461097b565b92915050565b6000819050919050565b60006109ca6109c56109c0846108e6565b6109a5565b6108e6565b9050919050565b60006109dc826109af565b9050919050565b60006109ee826109d1565b9050919050565b6109fe816109e3565b82525050565b6000602082019050610a1960008301846109f5565b92915050565b610a2881610971565b8114610a3357600080fd5b50565b600081359050610a4581610a1f565b92915050565b600060208284031215610a6157610a606108dc565b5b6000610a6f84828501610a36565b91505092915050565b6000610a83826109d1565b9050919050565b610a9381610a78565b82525050565b6000602082019050610aae6000830184610a8a565b92915050565b60008115159050919050565b610ac981610ab4565b8114610ad457600080fd5b50565b600081359050610ae681610ac0565b92915050565b600080fd5b600080fd5b600080fd5b60008083601f840112610b1157610b10610aec565b5b8235905067ffffffffffffffff811115610b2e57610b2d610af1565b5b602083019150836001820283011115610b4a57610b49610af6565b5b9250929050565b600080600060408486031215610b6a57610b696108dc565b5b6000610b7886828701610ad7565b935050602084013567ffffffffffffffff811115610b9957610b986108e1565b5b610ba586828701610afb565b92509250509250925092565b600082825260208201905092915050565b7f4e6f206465706f73697420666f756e6420666f72207061727469636970616e74600082015250565b6000610bf8602083610bb1565b9150610c0382610bc2565b602082019050919050565b60006020820190508181036000830152610c2781610beb565b9050919050565b7f4465706f73697420616d6f756e74206d75737420626520706f73697469766500600082015250565b6000610c64601f83610bb1565b9150610c6f82610c2e565b602082019050919050565b60006020820190508181036000830152610c9381610c57565b9050919050565b610ca381610906565b82525050565b6000606082019050610cbe6000830186610c9a565b610ccb6020830185610c9a565b610cd8604083018461097b565b949350505050565b600081519050610cef81610ac0565b92915050565b600060208284031215610d0b57610d0a6108dc565b5b6000610d1984828501610ce0565b91505092915050565b7f4465706f736974207472616e73666572206661696c6564000000000000000000600082015250565b6000610d58601783610bb1565b9150610d6382610d22565b602082019050919050565b60006020820190508181036000830152610d8781610d4b565b9050919050565b7f4e487b7100000000000000000000000000000000000000000000000000000000600052601160045260246000fd5b6000610dc882610971565b9150610dd383610971565b9250828201905080821115610deb57610dea610d8e565b5b92915050565b7f4368616c6c656e6765206e6f7420636f6d706c65746564000000000000000000600082015250565b6000610e27601783610bb1565b9150610e3282610df1565b602082019050919050565b60006020820190508181036000830152610e5681610e1a565b9050919050565b7f4e6f206465706f73697420746f20726566756e64000000000000000000000000600082015250565b6000610e93601483610bb1565b9150610e9e82610e5d565b602082019050919050565b60006020820190508181036000830152610ec281610e86565b9050919050565b7f4e487b7100000000000000000000000000000000000000000000000000000000600052601260045260246000fd5b6000610f0382610971565b9150610f0e83610971565b925082610f1e57610f1d610ec9565b5b828204905092915050565b6000604082019050610f3e6000830185610c9a565b610f4b602083018461097b565b9392505050565b7f526566756e64207472616e73666572206661696c656400000000000000000000600082015250565b6000610f88601683610bb1565b9150610f9382610f52565b602082019050919050565b60006020820190508181036000830152610fb781610f7b565b9050919050565b82818337600083830152505050565b6000601f19601f8301169050919050565b6000610fea8385610bb1565b9350610ff7838584610fbe565b61100083610fcd565b840190509392505050565b60006040820190506110206000830186610c9a565b8181036020830152611033818486610fde565b9050949350505050565b60008151905061104c81610a1f565b92915050565b600060208284031215611068576110676108dc565b5b60006110768482850161103d565b91505092915050565b7f526577617264207472616e73666572206661696c656400000000000000000000600082015250565b60006110b5601683610bb1565b91506110c08261107f565b602082019050919050565b600060208201905081810360008301526110e4816110a8565b9050919050565b60006110f682610971565b915061110183610971565b925082820390508181111561111957611118610d8e565b5b92915050565b7f5265656e7472616e637947756172643a207265656e7472616e742063616c6c00600082015250565b6000611155601f83610bb1565b91506111608261111f565b602082019050919050565b6000602082019050818103600083015261118481611148565b905091905056fea26469706673582212200cecf229c30408dfc4ce1e9994c369afcae5a98cbe56aa9338497cec5bf834d264736f6c63430008140033a2646970667358221220c77fc0a8196c8176d066b69be19173591e7eadb25803499e5314ad0f888a527064736f6c63430008140033",
  "linkReferences": {},
  "deployedLinkReferences": {}
}